:020000040800F2
:1000000000500020755E0008395B0008415B000865
:10001000495B0008515B0008595B000800000000C4
:10002000000000000000000000000000615B00080C
:100030006D5B000800000000795B0008855B00082C
:10004000BD5E0008BD5E0008BD5E0008BD5E000824
:10005000BD5E0008BD5E0008BD5E0008BD5E000814
:10006000BD5E0008BD5E0008BD5E0008BD5E000804
:10007000BD5E0008BD5E0008915B0008BD5E000823
:10008000BD5E0008BD5E0008BD5E0008BD5E0008E4
:10009000BD5E0008BD5E0008BD5E0008BD5E0008D4
:1000A000BD5E0008BD5E0008BD5E0008BD5E0008C4
:1000B000A55B0008BD5E0008BD5E0008BD5E0008CF
:1000C000BD5E0008BD5E0008BD5E0008BD5E0008A4
:1000D000BD5E0008B95B0008BD5E0008BD5E00089B
:1000E000BD5E0008BD5E0008BD5E000800000000A7
:1000F0000000000000000000000000000000000000
:0C01000000000000000000005FF808F1A3
:10010C0010B5054C237833B9044B13B10448AFF345
:10011C0000800123237010BD60000020000000004F
:10012C004C93000808B5034B1BB103490348AFF3CC
:10013C00008008BD00000000640000204C93000803
:10014C0080B483B000AFEFF310837B6072B67B6832
:10015C0003F0010318460C37BD4680BC704780B4D1
:10016C0083B000AF78607B681B68002B00D162B64F
:10017C0000BF0C37BD4680BC704780B483B000AF65
:10018C0078600B46FB707B6800225A807B680022EB
:10019C001A8000BF0C37BD4680BC704780B483B05A
:1001AC0000AF78607B685B889BB24EF65E22934210
:1001BC0094BF01230023DBB2002B07D07B685B8844
:1001CC009BB201339AB27B685A8009E07B680022AB
:1001DC005A807B681B889BB201339AB27B681A8069
:1001EC0000BF0C37BD4680BC7047000080B485B0A2
:1001FC0000AF78600B46FB701346BB707B685B8866
:10020C009BB21946FB78053B104A02FB03F30B44E7
:10021C00FB6004E0FB68A3F56A43603BFB60FB6892
:10022C0047F230529342F5DC04E0FB6803F56A4375
:10023C006033FB60FB68064A9342F6DBFB681BB23B
:10024C0018461437BD4680BC704700BF18FCFFFF32
:10025C00D18AFFFF80B483B000AF78607B681B88C5
:10026C009BB240F2152293428CBF01230023DBB2D8
:10027C0018460C37BD4680BC704780B483B000AFC5
:10028C0078607B681B889BB2212B8CBF01230023D9
:10029C00DBB218460C37BD4680BC704780B483B0C7
:1002AC0000AF78607B681B78C3F30303DBB2082BC9
:1002BC000ED87B681B78C3F30303DBB2013303F066
:1002CC000F03D9B27A68137861F3030313701FE03C
:1002DC007A68137823F00F0313707B681B78C3F3D1
:1002EC000313DBB2082B0ED87B681B78C3F3031304
:1002FC00DBB2013303F00F03D9B27A68137861F3E0
:10030C000713137004E07A68137823F0F00313706A
:10031C0000BF0C37BD4680BC7047000080B485B070
:10032C0000AF0346FB71FB79124AA2FB0323DB08E7
:10033C00FB73FB7B03F00F03DAB23B7B62F3071317
:10034C003B73FB7B1A465201D21A9200D31A5B0004
:10035C00DAB2FB791344DBB203F00F03DAB23B7B66
:10036C0062F303033B733B7B18461437BD4680BCDA
:10037C00704700BFCDCCCCCC80B483B000AF38710B
:10038C003B79C3F30303DBB21A463B79C3F3031384
:10039C00DBB2194689000B445B00DBB21344DBB2C1
:1003AC0018460C37BD4680BC704780B485B000AF92
:1003BC000346FB71FB79FB73FB7B03F00F03DAB293
:1003CC00FB7B1B09DBB25340FB73FB7B03F003038A
:1003DC00DAB2FB7B9B08DBB25340FB73FB7B03F075
:1003EC000103DAB2FB7B5B08DBB25340FB73FB7B94
:1003FC0018461437BD4680BC704780B483B000AF3C
:10040C000346FB710B46BB7113467B717B79002B4A
:10041C000AD0BB79012202FA03F35AB297F90730DA
:10042C0013435BB2DBB20BE0BB79012202FA03F39C
:10043C005BB2DB435AB297F9073013405BB2DBB2C5
:10044C0018460C37BD4680BC704780B483B000AFF3
:10045C0078600B46FB70FB78002B11D07B6893F90E
:10046C000030DBB27A6892F900207F2A14BF012297
:10047C000022D2B21344DBB25AB27B681A7011E07C
:10048C007B6893F90030DBB27A6892F9002012F1A4
:10049C007E0FACBF01220022D2B29B1ADBB25AB241
:1004AC007B681A7000BF0C37BD4680BC70470000DB
:1004BC0080B582B000AF78600B46FB701346BB7002
:1004CC00FB780F3B2B2B00F2A58001A252F823F0F6
:1004DC008D0500089F050008B9050008D305000824
:1004EC00ED05000821060008210600082106000879
:1004FC002106000821060008210600082106000834
:10050C002106000821060008210600082106000823
:10051C002106000821060008210600082106000813
:10052C002106000821060008210600082106000803
:10053C0021060008210600082106000821060008F3
:10054C0021060008210600082106000821060008E3
:10055C0021060008210600082106000821060008D3
:10056C0021060008210600082106000821060008C3
:10057C0021060008210600082106000807060008CD
:10058C00BB78002B14BF01230023DAB27B681A70EE
:10059C0040E07B685A1CBB78002B14BF012300235E
:1005AC00DBB219461046FFF750FF33E07B689A1C0C
:1005BC00BB78002B14BF01230023DBB21946104675
:1005CC00FFF743FF26E07B689A1CBB78012B14BF16
:1005DC0001230023DBB219461046FFF736FF19E062
:1005EC007B68DA1CBB78002B14BF01230023DBB221
:1005FC0019461046FFF729FF0CE07B681A1DBB78E3
:10060C00002B14BF01230023DBB219461046FFF761
:10061C001CFF00BF00BF0837BD4680BD80B483B04F
:10062C0000AF78607B6893F90130002B02DD7B68AA
:10063C0000229A707B6800225A707B680022DA7064
:10064C0000BF0C37BD4680BC704780B483B000AF90
:10065C0078607B6800221A7100BF0C37BD4680BCE5
:10066C00704780B483B000AF78607B6893F9023038
:10067C00DB43DBB2DB09DBB218460C37BD4680BC72
:10068C00704780B483B000AF78607B681B781846E5
:10069C000C37BD4680BC704780B483B000AF786027
:1006AC007B6893F90130002BCCBF01230023DBB214
:1006BC0018460C37BD4680BC704780B483B000AF81
:1006CC0078607B6893F90330002BCCBF01230023A7
:1006DC00DBB218460C37BD4680BC704780B582B083
:1006EC0000AF78600B46FB701346BB707B68BA7822
:1006FC00F978184601F03CFF00BF0837BD4680BDB5
:10070C0080B582B000AF78607B68184601F0FDFFC1
:10071C007B68184602F010F80346DBB2002B0CBFC6
:10072C0001230023DBB2002B04D07B680E33184668
:10073C0001F0EBFF00BF0837BD4680BD80B582B02D
:10074C0000AF78600B46FB701346BB707B68BA78C1
:10075C00F978184602F022F87B680E33BA78F978EB
:10076C001846FFF7BBFF00BF0837BD4680BD80B5FC
:10077C0084B000AF78607B68184602F0DCF8034662
:10078C00FB737B680E33184602F0D5F80346BB7337
:10079C00FA7BBB7B9A4201D2FB7B00E0BB7B184609
:1007AC001037BD4680BD80B584B000AF78607B68E3
:1007BC00184601F0C1FF03463B737B680E331846A5
:1007CC0001F0BAFF03463B723B7BFF2B02D03B7A16
:1007DC00FF2B02D1FF233B7306E03A7B3B7A1B01D4
:1007EC00DBB21344DBB23B733B7B18461037BD4680
:1007FC0080BD80B582B000AF78607B68184602F08F
:10080C0052F97B680E33184602F04DF900BF0837D9
:10081C00BD4680BD80B582B000AF78600B46FB70E2
:10082C001346BB707B68BA78F978184602F05DF90C
:10083C0000BF0837BD4680BD80B582B000AF786080
:10084C000B46FB701346BB707B68BA78F978184678
:10085C0002F018FA00BF0837BD4680BD80B582B0E3
:10086C0000AF78600B46FB701346BB707B68BA78A0
:10087C00F978184602F0D3FA00BF0837BD4680BDA0
:10088C0080B582B000AF78600B46FB701346BB702E
:10089C007B68BA78F978184602F08EFB00BF0837EF
:1008AC00BD4680BD80B582B000AF78600B46FB7052
:1008BC001346BB707B68BA78F978184602F05DFC79
:1008CC0000BF0837BD4680BD80B582B000AF7860F0
:1008DC007B68184602F033FD7B68FF2283F84620C4
:1008EC007B68FF2283F8472000BF0837BD4680BDD8
:1008FC0080B584B000AF786039603A6807F10803BE
:10090C001068516803C307F10803184600F00FFE86
:10091C0007F10803184600F0EEFD7B6803F1400276
:10092C0007F108031146184601F04CFB7B680022C6
:10093C0083F8462000BF1037BD4680BD80B58CB013
:10094C0000AF78600B46FB707B6893F83E301A461C
:10095C007B6893F83D30D31A0C2B05DD786800F0DA
:10096C00FCFA0346032B01D1012300E00023002BEA
:10097C0050D07B68184602F008FD322387F82A30E5
:10098C007B6893F83E30CD2B3ED9002387F82F306F
:10099C001AE097F82F307A6813443B620023FB77F8
:1009AC003B6A1B78322B03D83B6A00221A7005E095
:1009BC003B6A1B78323BDAB23B6A1A7000BF97F87D
:1009CC002F30013387F82F3097F82F303B2BE0D99D
:1009DC007B6893F83E30323BDAB27B6883F83E207A
:1009EC007B683D33BB610023FB75BB691B78322BE5
:1009FC0003D8BB6900221A7005E0BB691B78323B37
:100A0C00DAB2BB691A7000BF7B6893F846207B682A
:100A1C0083F84720FB78002B29D17B6893F83C3076
:100A2C001A467B6813443B61FF23FB733B691B78BD
:100A3C00F82B03D93B69FF221A7005E03B691B7840
:100A4C000633DAB23B691A7000BF7B6893F83C201E
:100A5C007B6893F83F309A4240F0CD807B6893F8E6
:100A6C0046300633DAB27B6883F84620C3E0FB7865
:100A7C00022B03D0FB78032B40F0BD80FB78032BBB
:100A8C000CBF01230023DBB287F829307B6893F875
:100A9C003C30002B05D07B6893F83C30013BDBB23B
:100AAC0000E03B2387F82E3097F82930002B0CBF41
:100ABC000123002387F8283097F82E307A68D15C10
:100ACC0097F8282097F82E300A44D1B27A68D1547E
:100ADC007B6893F83F3097F82E209A4209D17B68B7
:100AEC0093F8462097F828301344DAB27B6883F8E1
:100AFC00462097F82E300F2B04D997F82E30103B48
:100B0C00DBB203E097F82E302C33DBB287F82E30B3
:100B1C00002387F82D30032387F82C307B6893F85B
:100B2C004030DB0887F82B3061E097F82B3003F06E
:100B3C00010387F8273097F8292097F827309A4235
:100B4C000CBF0123002387F8263097F82E307A68E3
:100B5C00D15C97F8262097F82E300A44D1B27A68E7
:100B6C00D1547B6893F83F3097F82E209A4209D1E4
:100B7C007B6893F8462097F826301344DAB27B68EA
:100B8C0083F8462097F82E30002B04D097F82E309F
:100B9C00013BDBB200E03B2387F82E3097F82B307B
:100BAC005B0887F82B3097F82C30013387F82C3002
:100BBC0097F82D30052B03D197F82C30052B04D842
:100BCC0097F82C30072BB0D900E000BF002387F832
:100BDC002C3097F82D30013387F82D307B6803F1DA
:100BEC00400297F82D3013441B7887F82B3097F878
:100BFC002D30052BE4D97B6893F83C303A2B05D883
:100C0C007B6893F83C300133DAB200E000227B6859
:100C1C0083F83C2000BF3037BD4680BD80B59EB008
:100C2C0000AF78600B46FB707B6893F83C30002B70
:100C3C0005D07B6893F83C30013BDBB200E03B23F2
:100C4C0087F877307B6893F83C30142B05D97B6898
:100C5C0093F83C30153BDBB204E07B6893F83C30F6
:100C6C002733DBB287F87630FB78032B00F0BD809E
:100C7C00032B00F30281002B02D0022B6DD0FCE081
:100C8C007B6893F83C301A467B6813443B66FF2321
:100C9C0087F85F303B6E1B78F82B03D93B6EFF2235
:100CAC001A7005E03B6E1B780633DAB23B6E1A7095
:100CBC0000BF97F877307A681344BB66002387F837
:100CCC006730BB6E1B78022B03D8BB6E00221A70E8
:100CDC0005E0BB6E1B78023BDAB2BB6E1A7000BF2C
:100CEC0097F876307A6813443B67002387F86F30A7
:100CFC003B6F1B78022B03D83B6F00221A7005E068
:100D0C003B6F1B78023BDAB23B6F1A7000BF7B68FB
:100D1C0093F83C303A2B05D87B6893F83C30013380
:100D2C00DBB200E0002387F8753097F875307A68ED
:100D3C001344BB65002387F85730BB6D1B78022B1F
:100D4C0003D8BB6D00221A7005E0BB6D1B78023B0B
:100D5C00DAB2BB6D1A7000BFD3E097F877307A68BF
:100D6C0013443B64FF2387F83F303B6C1B78FD2B0F
:100D7C0003D93B6CFF221A7005E03B6C1B780133E6
:100D8C00DAB23B6C1A7000BF7B6893F83C301A46A1
:100D9C007B681344BB64002387F84730BB6C1B781B
:100DAC00022B03D8BB6C00221A7005E0BB6C1B78BD
:100DBC00023BDAB2BB6C1A7000BF97F876307A68D7
:100DCC0013443B65002387F84F303B6D1B78022B97
:100DDC0003D83B6D00221A7005E03B6D1B78023B7B
:100DEC00DAB23B6D1A7000BF8BE097F876307A68F8
:100DFC001344BB62FF2387F82730BB6A1B78FD2B9B
:100E0C0003D9BB6AFF221A7005E0BB6A1B78013359
:100E1C00DAB2BB6A1A7000BF7B6893F83C301A4692
:100E2C007B6813443B63002387F82F303B6B1B78A4
:100E3C00022B03D83B6B00221A7005E03B6B1B782E
:100E4C00023BDAB23B6B1A7000BF97F877307A68C6
:100E5C001344BB63002387F83730BB6B1B78022B22
:100E6C0003D8BB6B00221A7005E0BB6B1B78023BEE
:100E7C00DAB2BB6B1A7000BF43E07B6893F83C306E
:100E8C001A467B6813443B610023FB733B691B7858
:100E9C00022B03D83B6900221A7005E03B691B78D2
:100EAC00023BDAB23B691A7000BF97F877307A6868
:100EBC001344BB610023FB75BB691B78022B03D861
:100ECC00BB6900221A7005E0BB691B78023BDAB2E1
:100EDC00BB691A7000BF97F876307A6813443B628E
:100EEC000023FB773B6A1B78022B03D83B6A00225A
:100EFC001A7005E03B6A1B78023BDAB23B6A1A7047
:100F0C0000BF7B6893F83C303A2B05D87B6893F88C
:100F1C003C300133DAB200E000227B6883F83C20DD
:100F2C007B6893F83E301A467B6893F83D30D31AB1
:100F3C000C2B05DD786800F010F80346032B01D16B
:100F4C00012300E00023002B03D07B68184602F03D
:100F5C001CFA00BF7837BD4680BD80B485B000AFA9
:100F6C0078607B6893F83E301A467B6893F83D3086
:100F7C00D31A0B2B12DD7B6893F83C207B6893F81B
:100F8C003F30D31ADBB27633FB7302E0FB7B3C3B86
:100F9C00FB73FB7B3B2BF9D8FB7B00E0FF23184654
:100FAC001437BD4680BC704780B582B000AF786006
:100FBC000B46FB707B6893F84630FF2B05D1FB7812
:100FCC0019467868FFF72AFE04E0FB781946786822
:100FDC00FFF7B4FC00BF0837BD4680BD80B582B0BA
:100FEC0000AF78607B685B78122B8CBF01220022EB
:100FFC00D2B2002A32D1012202FA03F31A4A1A4061
:10100C00002A14BF01220022D2B2002A22D1174A90
:10101C001A40002A14BF01220022D2B2002A1BD18E
:10102C0003F00403002B14BF01230023DBB2002BBD
:10103C0014D07B681B78002B0AD07B681878FFF7DC
:10104C009BF9034603F00303002B01D11D2306E09B
:10105C001C2304E01F2302E01E2300E0002318469B
:10106C000837BD4680BD00BFAA0105005002020032
:10107C0080B483B000AF78607B6800229A717B6883
:10108C0000225A717B6800221A717B6801229A70C7
:10109C007B6801225A707B6800221A707B680122DF
:1010AC00DA707A68D37923F00103D3717A68D37933
:1010BC0023F00203D3717A68D37923F00403D3713C
:1010CC007A68D37923F00803D3717A68D37923F043
:1010DC001003D3717A68D37923F02003D3717A6823
:1010EC00D37923F04003D3717A68D37923F080034A
:1010FC00D37100BF0C37BD4680BC704780B584B03F
:10110C0000AF78607B689B78312B56D87B685B7816
:10111C00122B52D87B681B78992B4ED87B68987809
:10112C00FFF72AF90346BB737B685B78022B04D864
:10113C007B685B780A339BB206E07B685878FFF7D4
:10114C001BF90346023B9BB2BB817B681878FFF707
:10115C0013F903461A467B685B78022B94BF012374
:10116C000023DBB2D31AFB72BB891A2202FB03F3F6
:10117C00023B144A82FB03129210DB17D31ADAB229
:10118C00BB7B1344DAB2FB7A1344DAB2FB7A9B08CA
:10119C00DBB21344FB730BE0FB7B073BFB73FB7B6A
:1011AC00DB08DAB2FB7B03F00703DBB21344FB73FF
:1011BC00FB7B062BF0D8FB7B00E0FF231846103797
:1011CC00BD4680BD6766666680B584B000AF78604A
:1011DC007868FFF793FF03463B733B7B002B01D1F1
:1011EC0007233B733B7B18461037BD4680BD90B53B
:1011FC0083B000AF78607C687868FFF7E5FFE0703B
:10120C0000BF0C37BD4690BD80B584B000AF786090
:10121C007B685B78022B05D87A68D37923F00103BD
:10122C00D3717EE07B685B78032B31D17B689B7834
:10123C00242B05D87A68D37923F00103D37170E09D
:10124C007868FFF75BFF0346BB73BB7B002B12D0A8
:10125C007B689B781A46BB7BD31A242B05DC7A68F7
:10126C00D37923F00103D3715BE07A68D37943F02F
:10127C000103D37155E07B681B79012B8CBF0123D3
:10128C000023D9B27A68D37961F30003D37148E0B3
:10129C007B685B780F2B05D87A68D37943F0010310
:1012AC00D3713EE07B685B78102B35D17B689B78E3
:1012BC00242B05D87A68D37943F00103D37130E03D
:1012CC007868FFF71BFF0346FB73FB7B002B12D0E8
:1012DC007B689B781A46FB7BD31A242B05DC7A6837
:1012EC00D37943F00103D3711BE07A68D37923F0EF
:1012FC000103D37115E07B681B79022B11D07B683D
:10130C001B79012B94BF01230023D9B27A68D379BE
:10131C0061F30003D37104E07A68D37923F00103FD
:10132C00D37100BF1037BD4680BD80B582B000AF11
:10133C0078607B689B78242B05D97868FFF7DEFEF4
:10134C000346002B01D0012300E00023002B05D025
:10135C007A68D37923F00403D37162E07B685B78FD
:10136C00032B28D17B68DB79C3F30003DBB2002BA2
:10137C0010D07B681B79032B05D17B685B79002B24
:10138C0001D1012100E000217A68D37961F3820355
:10139C00D37146E07B681B79012B05D17B685B79A7
:1013AC00002B01D0012100E000217A68D37961F390
:1013BC008203D37135E07B685B78102B28D17B6876
:1013CC00DB79C3F30003DBB2002B10D07B681B79F5
:1013DC00022B05D17B685B79002B01D0012100E049
:1013EC0000217A68D37961F38203D37119E07B68A9
:1013FC001B79022B05D17B685B79002B01D1012174
:10140C0000E000217A68D37961F38203D37108E09C
:10141C007B685B78122B04D87A68D37923F00403A9
:10142C00D37100BF0837BD4680BD80B485B000AF16
:10143C0078600B46FB707B689B78012B0BD1FB789B
:10144C00002B06D17B68DB79C3F3C003DBB2002B26
:10145C0001D0012300E00023FB737B685B78012B38
:10146C001AD1FB7B7A681279002A03D17A685279F7
:10147C00002A07D17A681279012A05D17A68527943
:10148C00002A01D1012200E000221340002B14BFDE
:10149C0001230023FB7328E07B685B78072B07D0C4
:1014AC007B685B78042B03D07B685B78102B1AD19C
:1014BC00FB7B7A681279012A03D17A685279002A67
:1014CC0007D17A681279022A05D17A685279002AF2
:1014DC0001D1012200E000221340002B14BF012394
:1014EC000023FB7301E00023FB73FB7B18461437CE
:1014FC00BD4680BC704780B582B000AF786078681C
:10150C00FFF775FE7868FFF77FFE7868FFF70DFF31
:10151C0000217868FFF789FF034619467A68D3796A
:10152C0061F3C303D37100BF0837BD4680BD90B5CE
:10153C0083B000AF78607B685B79582B05D87B68EB
:10154C0005331846FEF7AAFEB3E07B685B79592B8E
:10155C0040F0AF807B6800225A717B68DB79C3F363
:10156C008003DBB2002B1DD07B68DB79C3F3000357
:10157C00DBB283F00103DBB2002B13D07B681B7949
:10158C00012B0FD17B6804331846FEF787FE7B686E
:10159C0004331846FEF782FE7A68D37943F00103D0
:1015AC00D37186E07B68DB79C3F38003DBB2002B5D
:1015BC0010D07B68DB79C3F30003DBB2002B09D0BE
:1015CC007B681B79022B05D17A68D37923F0010350
:1015DC00D3716EE07B681B79222B05D87B680433B2
:1015EC001846FEF75BFE64E07B681B79232B60D109
:1015FC007B6800221A717B68DB78062B05D87B6828
:10160C0003331846FEF74AFE06E07B68DB78072BAF
:10161C0002D17B680122DA707B689878FEF7ACFE09
:10162C0003461C467868FFF7D9FC03469C4234BF3E
:10163C0001230023DBB2002B05D07B680233184654
:10164C00FEF72CFE35E07B689878FEF795FE034696
:10165C001C467868FFF7C2FC03469C420CBF012372
:10166C000023DBB2002B24D07B6801229A707B68AC
:10167C005B78112B05D87B6801331846FEF70EFEFC
:10168C0017E07B685B78122B13D17B6801225A70B0
:10169C007B681B78982B04D87B681846FEF7FEFDF8
:1016AC0007E07B681B78992B03D17B6800221A70AA
:1016BC00FFE700BF0C37BD4690BD80B582B000AFD0
:1016CC0078607B689B793A2B0DD87B689B790133CA
:1016DC00DAB27B689A717B689B790F2B29D1786879
:1016EC00FFF709FF25E07B68DB79C3F3C003DBB2AE
:1016FC00002B10D07B689B793B2B0CD17B685B79E2
:10170C00002B08D17B683C229A717A68D37923F03C
:10171C000803D3710DE07B689B793B2B03D07B686E
:10172C009B793C2B05D17B6800229A717868FFF776
:10173C00FEFE00BF0837BD4680BD000090B585B0E9
:10174C0000AF78607B689B79002B06D07B689B7917
:10175C000E2B02D8012300F030BC7B689B793C2B0C
:10176C0000F2228401A252F823F000BF6D18000889
:10177C00B51F0008B51F0008B51F0008B51F0008ED
:10178C00B51F0008B51F0008B51F0008B51F0008DD
:10179C00B51F0008B51F0008B51F0008B51F0008CD
:1017AC00B51F0008B51F0008711800088F18000835
:1017BC00AD180008CB180008EF180008FB1800083B
:1017CC00FF18000833190008671900089B19000856
:1017DC00CF190008031A0008371A00086B1A000802
:1017EC009D1A0008C31A0008E91A00080F1B00080C
:1017FC00351B00085B1B0008811B0008A51B00089B
:10180C00CB1B0008F11B0008171C00083D1C00082E
:10181C00631C0008891C0008A91C0008C91C0008CE
:10182C00E91C00080F1D0008351D00085B1D000891
:10183C00811D0008A71D0008CD1D0008F31D000820
:10184C00191E00083F1E0008651E00088B1E0008AC
:10185C00B11E0008D71E0008951F0008B11F000814
:10186C000223AAE37B68DB79C3F38013DBB2002B82
:10187C0001D00123A1E37B68DB79C3F34003FB7345
:10188C0094E37B68DB79C3F3C013DBB2002B01D08C
:10189C00012392E37B68DB79C3F38003FB7385E35D
:1018AC007B68DB79C3F34013DBB2002B01D001233F
:1018BC0083E37B68DB79C3F30003FB7376E37B681C
:1018CC00DB79C3F34013DBB2002B01D0012374E3AB
:1018DC007B68DB79C3F30003DBB283F00103FB739A
:1018EC0064E37B68DB79C3F3C003FB735EE3032320
:1018FC0063E37B68DB79C3F30013DBB2002B03D10A
:10190C007B685B79592B01D9012356E37B685B79A2
:10191C00C3F30303DBB203F00103002B14BF012359
:10192C000023FB7342E37B68DB79C3F30013DBB268
:10193C00002B03D17B685B79592B01D901233CE344
:10194C007B685B79C3F30303DBB203F00203002B68
:10195C0014BF01230023FB7328E37B68DB79C3F3FB
:10196C000013DBB2002B03D17B685B79592B01D9B7
:10197C00012322E37B685B79C3F30303DBB203F03F
:10198C000403002B14BF01230023FB730EE37B68BD
:10199C00DB79C3F30013DBB2002B03D17B685B79DB
:1019AC00592B01D9012308E37B685B79C3F303034B
:1019BC00DBB203F00803002B14BF01230023FB73DD
:1019CC00F4E27B68DB79C3F30013DBB2002B03D1A9
:1019DC007B685B79592B01D90123EEE27B685B793B
:1019EC00C3F30313DBB203F00103002B14BF012379
:1019FC000023FB73DAE27B68DB79C3F30013DBB201
:101A0C00002B03D17B685B79592B01D90123D4E2DC
:101A1C007B685B79C3F30313DBB203F00203002B87
:101A2C0014BF01230023FB73C0E27B68DB79C3F393
:101A3C000013DBB2002B03D17B685B79592B01D9E6
:101A4C000123BAE27B685B79C3F30313DBB203F0C7
:101A5C000403002B14BF01230023FB73A6E27B6855
:101A6C00DB79C3F30013DBB2002B03D17B685B790A
:101A7C00592B01D90123A0E27B685B791846FEF74C
:101A8C0094FC0346002B14BF01230023FB738DE24F
:101A9C007B681B79232B01D901238EE27B681B7990
:101AAC00C3F30303DBB203F00103002B14BF0123C8
:101ABC000023FB737AE27B681B79232B01D901236A
:101ACC007BE27B681B79C3F30303DBB203F00203F5
:101ADC00002B14BF01230023FB7367E27B681B7987
:101AEC00232B01D9012368E27B681B79C3F3030321
:101AFC00DBB203F00403002B14BF01230023FB73A0
:101B0C0054E27B681B79232B01D9012355E27B68B6
:101B1C001B79C3F30303DBB203F00803002B14BFE0
:101B2C0001230023FB7341E27B681B79232B01D932
:101B3C00012342E27B681B79C3F30313DBB203F08E
:101B4C000103002B14BF01230023FB732EE27B68DF
:101B5C001B79232B01D901232FE27B681B79C3F35B
:101B6C000313DBB203F00203002B14BF0123002389
:101B7C00FB731BE27B681B79232B01D901231CE22D
:101B8C007B681B791846FEF710FC0346002B14BF2C
:101B9C0001230023FB7309E27B689B78312B01D96D
:101BAC0001230AE27B689B78C3F30303DBB203F0E7
:101BBC000103002B14BF01230023FB73F6E17B68A8
:101BCC009B78312B01D90123F7E17B689B78C3F318
:101BDC000303DBB203F00203002B14BF0123002329
:101BEC00FB73E3E17B689B78312B01D90123E4E1A2
:101BFC007B689B78C3F30303DBB203F00403002B75
:101C0C0014BF01230023FB73D0E17B689B78312B3D
:101C1C0001D90123D1E17B689B78C3F30303DBB2C9
:101C2C0003F00803002B14BF01230023FB73BDE159
:101C3C007B689B78312B01D90123BEE17B689B78B3
:101C4C00C3F30313DBB203F00103002B14BF012316
:101C5C000023FB73AAE17B689B78312B01D901230C
:101C6C00ABE17B689B78C3F30313DBB203F0020395
:101C7C00002B14BF01230023FB7397E17B68DB78F7
:101C8C00072B01D9012398E17B68DB7803F0010372
:101C9C00002B14BF01230023FB7387E17B68DB78E7
:101CAC00072B01D9012388E17B68DB7803F0020361
:101CBC00002B14BF01230023FB7377E17B68DB78D7
:101CCC00072B01D9012378E17B68DB7803F004034F
:101CDC00002B14BF01230023FB7367E17B685B7847
:101CEC00122B01D9012368E17B685B78C3F30303F2
:101CFC00DBB203F00103002B14BF01230023FB73A1
:101D0C0054E17B685B78122B01D9012355E17B6888
:101D1C005B78C3F30303DBB203F00203002B14BFA5
:101D2C0001230023FB7341E17B685B78122B01D903
:101D3C00012342E17B685B78C3F30303DBB203F05E
:101D4C000403002B14BF01230023FB732EE17B68DB
:101D5C005B78122B01D901232FE17B685B78C3F3ED
:101D6C000303DBB203F00803002B14BF0123002391
:101D7C00FB731BE17B685B78122B01D901231CE1FF
:101D8C007B685B78C3F30313DBB203F00103002B16
:101D9C0014BF01230023FB7308E17B681B78992B8C
:101DAC0001D9012309E17B681B78C3F30303DBB280
:101DBC0003F00103002B14BF01230023FB73F5E098
:101DCC007B681B78992B01D90123F6E07B681B7883
:101DDC00C3F30303DBB203F00203002B14BF012394
:101DEC000023FB73E2E07B681B78992B01D901235C
:101DFC00E3E07B681B78C3F30303DBB203F004035B
:101E0C00002B14BF01230023FB73CFE07B681B78EE
:101E1C00992B01D90123D0E07B681B78C3F3030312
:101E2C00DBB203F00803002B14BF01230023FB7368
:101E3C00BCE07B681B78992B01D90123BDE07B6842
:101E4C001B78C3F30313DBB203F00103002B14BFA5
:101E5C0001230023FB73A9E07B681B78992B01D924
:101E6C000123AAE07B681B78C3F30313DBB203F0F6
:101E7C000203002B14BF01230023FB7396E07B6845
:101E8C001B78992B01D9012397E07B681B78C3F34E
:101E9C000313DBB203F00403002B14BF0123002354
:101EAC00FB7383E07B681B78992B01D9012384E0B9
:101EBC007B681B78C3F30313DBB203F00803002B1E
:101ECC0014BF01230023FB7370E07B68DB78072BC6
:101EDC000BD87B689B78312B07D87B685B78122BEF
:101EEC0003D87B681B78992B01D9012365E07B68AB
:101EFC009B78C3F30303DBB21846FEF756FA03468E
:101F0C001C467B689B78C3F30313DBB21846FEF7C1
:101F1C004CFA03466340DCB27B685B78C3F3030383
:101F2C00DBB21846FEF741FA03466340DCB27B682D
:101F3C005B78C3F30313DBB21846FEF736FA03469D
:101F4C006340DCB27B68DB781846FEF72EFA03465A
:101F5C006340DCB27B681B78C3F30303DBB2184627
:101F6C00FEF723FA03466340DCB27B681B78C3F3AD
:101F7C000313DBB21846FEF718FA03469C4214BF53
:101F8C0001230023FB7311E07B68DB79C3F3C003EF
:101F9C00DBB2002B06D07B685B79002B02D10023CF
:101FAC00FB7303E0002308E0012306E0FB7B002B1E
:101FBC0001D0032300E0022300BF18461437BD46AE
:101FCC0090BD00BF90B585B000AF786039603B68BC
:101FDC0000221A703B6818787B68DB79C3F38003A6
:101FEC00DBB21A460321FEF708FA03461A463B6891
:101FFC001A703B6818787B68DB79C3F30003DBB29B
:10200C001A460421FEF7F9F903461A463B681A7082
:10201C003B6818787B68DB79C3F30003DBB283F091
:10202C000103DBB21A460521FEF7E7F903461A460F
:10203C003B681A703B6818787B68DB79C3F3C00384
:10204C00DBB21A460621FEF7D8F903461A463B685E
:10205C001A703B681B78012207211846FEF7CDF950
:10206C0003461A463B681A707B685C797B685B791F
:10207C001846FEF79AF903461A4607212046FEF742
:10208C00BCF903461A463B685A707B681C797B681E
:10209C001B791846FEF789F903461A460621204695
:1020AC00FEF7ABF903461A463B689A703B68987882
:1020BC007B689B78C3F30003DBB21A460721FEF75B
:1020CC009CF903461A463B689A707B689B785B08C0
:1020DC00DBB25AB27B68DB785BB25B015BB2134359
:1020EC005BB2DAB23B68DA707B685B785AB27B68B9
:1020FC001B785BB25B015BB213435BB2DAB23B6839
:10210C001A717B689B78C3F30303DBB21846FEF7A6
:10211C004CF903461C467B689B78C3F30313DBB274
:10212C001846FEF742F903466340DCB27B685B78E5
:10213C00C3F30303DBB21846FEF737F903466340DB
:10214C00DCB27B685B78C3F30313DBB21846FEF793
:10215C002CF903466340DCB27B68DB781846FEF74B
:10216C0024F903466340DCB27B681B78C3F303039A
:10217C00DBB21846FEF719F903466340DCB27B6804
:10218C001B78C3F30313DBB21846FEF70EF90346B4
:10219C006340FB737B681B78DB08DBB2FA7B0521A1
:1021AC001846FEF72AF903461A463B685A7100BFD7
:1021BC001437BD4690BD80B582B000AF78603960F1
:1021CC0001F050F9386801F05FF9786800F0C2F955
:1021DC0000BF0837BD4680BD90B583B000AF7860B6
:1021EC0039607B689B793C681846FEF797F8A071BC
:1021FC003B687A6852795A713B687A6812791A711D
:10220C003B687A68D278DA703B687A6892789A7010
:10221C003B687A6852785A703B687A6812781A7000
:10222C007B68DB79C3F30003DAB23B68DA717B6855
:10223C00DB79C3F3C003DAB23B685A727B68DB7993
:10224C00C3F38003DAB23B681A7200BF0C37BD4689
:10225C0090BD80B584B000AF786007F108031846D4
:10226C0001F020F907F1080379681846FFF7B4FF6D
:10227C0000BF1037BD4680BD80B500AF01F0BEF980
:10228C000346184680BD000080B400AF044A1378A2
:10229C0043F00103137000BFBD4680BC704700BF04
:1022AC008400002080B400AF044A137823F00103AB
:1022BC00137000BFBD4680BC704700BF8400002077
:1022CC0080B582B000AF03460A46FB711346BB7162
:1022DC00BA79FB7919460448FDF788FF034618467E
:1022EC000837BD4680BD00BF8000002080B582B09D
:1022FC0000AF00F00BF90346FB804FF48573BB80F5
:10230C00224B1B881BB21A464FF4857302FB03F356
:10231C001F4A128892B293FBF2F37B801C4B1B88F2
:10232C009BB203F209131A4A128892B293FBF2F38E
:10233C005AB2184B1A70174B1B785BB2002B0CBFA0
:10234C0001230023DBB2002B02D0124B01221A70A6
:10235C00FA887B88D31A9BB2FB80B7F90630B3F5A9
:10236C00FA6F02DD4FF4FA63FB80B7F9063013F510
:10237C00FA6F02DA4FF63003FB80B7F906301846D5
:10238C0000F0A4F800BF0837BD4680BD86000020D1
:10239C00800000207C00002080B584B000AF786005
:1023AC000523FB817B689A797B685B79C3F3030314
:1023BC00DBB219461046FFF783FF03461A46344B2F
:1023CC001A807B689B79052B5ED101217868FFF719
:1023DC002CF80346002B04D02E4A137823F002036A
:1023EC0013702C4B1B78C3F34003DBB2002B36D09D
:1023FC00284B1B78C3F30003DBB2002B23D02648F9
:10240C00FDF73BFF0346002B08D0214B1B881BB26A
:10241C00002BB8BF5B429BB2042B05D81E48FDF7BE
:10242C0019FF0346002B01D0012300E00023002BF1
:10243C002AD0FFF75BFF01F0EBF8164A137823F074
:10244C000203137020E01448FDF704FF0346002B31
:10245C001AD0104A137823F00203137014E00D4BBA
:10246C001B78C3F30003DBB2002B0DD07B685B79C8
:10247C00C3F30303DBB219460748FDF77EFE054A9A
:10248C00137843F00203137000BF1037BD4680BDB4
:10249C0086000020840000208000002080B500AF62
:1024AC000248FDF77BFE00BF80BD00BF800000200E
:1024BC0080B400AF00BFBD4680BC704780B400AF95
:1024CC0000231846BD4680BC7047000080B584B020
:1024DC0000AF0346FB80FDF733FE0346BB600123D0
:1024EC00FB6004E0084AFB8813800023FB60FB6858
:1024FC00002BF7D107F108031846FDF730FE00BF9B
:10250C001037BD4680BD00BF88000020B0B584B038
:10251C0000AF0025FDF714FE03467B600123FB6032
:10252C00FB68002B06D00A4B1B887B81B7F90A503D
:10253C00002400E001243B1D1846FDF710FE012C81
:10254C0001D100BFFFDE2B4618461037BD46B0BD8B
:10255C008800002080B483B000AF7860034A7B68A9
:10256C00136000BF0C37BD4680BC704700000020D4
:10257C0080B58AB000AF78600B46FB701346BB7019
:10258C00FB78352B40F2BB80FB78363B87F8233049
:10259C00042387F8223097F82330042B00F2B18003
:1025AC0097F82330042B03D1786801F057F8A9E091
:1025BC00FF2387F8213000233B74FF23FB73002398
:1025CC00BB737B689B7AC3F1090387F8203097F8BB
:1025DC00203087F82730002387F8263040E097F822
:1025EC0027307A681344BB6197F82330032B11D83A
:1025FC003B7C1A4697F8233042FA03F303F00103AD
:10260C00002B14BF01230023DAB2BB781946B8693A
:10261C0001F05CF8BB691A7807F10E0311461846F5
:10262C0001F075F8BB691A7807F10F0311461846CB
:10263C0001F080F897F82730082B04D897F827304A
:10264C000133DBB200E0002387F8273007F11003D9
:10265C001846FDF723FE97F82630013387F826300D
:10266C0097F82630092BBAD9BB7B1A46FB7BD31AB9
:10267C00FF2B17DC002387F825300FE097F8253067
:10268C007A68D15CFA7B97F825308A1AD1B27A68CD
:10269C00D15497F82530013387F8253097F8253039
:1026AC00092BEBD9BB7BFA2B2CD9002387F82430D0
:1026BC0020E097F824307A681344FB61FB697B6156
:1026CC000023FB747B691B78042B03D87B690022E5
:1026DC001A7005E07B691B78043BDAB27B691A70CF
:1026EC0000BF0021F86901F012F897F8243001338B
:1026FC0087F8243097F82430092BDAD902E000BF90
:10270C0000E000BF2837BD4680BD80B483B000AF69
:10271C0078607B689B7A082B06D87B689B7A0133A0
:10272C00DAB27B689A7202E07B6800229A7200BF70
:10273C000C37BD4680BC704780B584B000AF786064
:10274C000223FB730023BB737B681B7B1A467B68DD
:10275C00DB7AD31A012B17DD7B685B7B1A467B680F
:10276C009B7A13445A1C0C4B83FB02139910D317FE
:10277C00C91A0B469B000B445B00D11ACBB218460E
:10278C00FDF7CCFD034602E0FF233B733B7B184671
:10279C001037BD4680BD00BF6766666680B58AB0DF
:1027AC0000AF78600B46FB701346BB70FB78312B87
:1027BC0040F2BB80FB78323B87F82330042387F848
:1027CC00223097F82330042B00F2B18097F8233095
:1027DC00042B03D1786800F041FFA9E0FF2387F8B0
:1027EC00213000233B74FF23FB730023BB737B68F6
:1027FC009B7AC3F1090387F8203097F8203087F8CB
:10280C002730002387F8263040E097F827307A6885
:10281C001344BB6197F82330032B11D83B7C1A4629
:10282C0097F8233042FA03F303F00103002B14BF93
:10283C0001230023DAB2BB781946B86900F046FFD1
:10284C00BB691A7807F10E031146184600F05FFFBA
:10285C00BB691A7807F10F031146184600F06AFF9E
:10286C0097F82730082B04D897F827300133DBB2C0
:10287C0000E0002387F8273007F110031846FDF716
:10288C000DFD97F82630013387F8263097F826305F
:10289C00092BBAD9BB7B1A46FB7BD31AFF2B17DC4F
:1028AC00002387F825300FE097F825307A68D15C43
:1028BC00FA7B97F825308A1AD1B27A68D15497F8F6
:1028CC002530013387F8253097F82530092BEBD9C3
:1028DC00BB7BFA2B2CD9002387F8243020E097F807
:1028EC0024307A681344FB61FB697B610023FB7421
:1028FC007B691B78042B03D87B6900221A7005E0D6
:10290C007B691B78043BDAB27B691A7000BF00212B
:10291C00F86900F0FCFE97F82430013387F8243076
:10292C0097F82430092BDAD902E000BF00E000BF91
:10293C002837BD4680BDB0B586B000AF78600024A6
:10294C00FDF7FEFB0346BB6001233B6111E07B6896
:10295C001B7BFB757B68DB7AFA7D9A4202D80024DC
:10296C0000250AE07B68DB7AFA7DD31ABB7500235D
:10297C003B613B69002BEAD1012507F1080318469E
:10298C00FDF7EDFB012D40F0898000BFFB7D1C2B7A
:10299C0049D90023BB7305E0FB7D5B08FB75BB7B52
:1029AC000133BB73FB7D002BF6D1BB7B013BBB73AF
:1029BC00BB7B0C2B0BD9BB7B0D2B06D9BB7B0E2BFE
:1029CC0001D9112327E0122325E0132323E0BB7B3D
:1029DC00082B10D9BB7B0A2B06D9BB7B0B2B01D93F
:1029EC00152318E0172316E0BB7B092B01D91923FB
:1029FC0011E01C230FE0BB7B062B06D9BB7B072BFE
:102A0C0001D9202307E0242305E0BB7B052B01D94A
:102A1C002A2300E03323BB81BB7DBA8902FB03F37D
:102A2C001B12FB7339E0FB7D0C2B03D9BB7D9B0880
:102A3C00FB7332E0FB7D082B11D9BB7D0A2B0BD825
:102A4C00BB7D062B06D8BB7D032B01D9012304E0EB
:102A5C00002302E0022300E00323FB731DE0FB7D57
:102A6C00042B0CD9BB7D052B06D8BB7D022B01D9C1
:102A7C00012302E0002300E00223FB730DE0FB7D49
:102A8C00022B07D9BB7D022B01D9012300E00023C7
:102A9C00FB7302E0BB7D5B08FB73FC7B2346184693
:102AAC001837BD46B0BD80B485B000AF7860002348
:102ABC00FB7306E0FB7B7A680021D154FB7B01336E
:102ACC00FB73FB7B092BF5D97B6800229A727B6820
:102ADC0000221A737B680B225A737B680022DA720D
:102AEC0000BF1437BD4680BC704780B58AB000AFBC
:102AFC0078600B46FB701346BB70FB782C2B40F2B6
:102B0C00BB80FB782D3B87F82330062387F82230D7
:102B1C0097F82330062B00F2B18097F82330062B60
:102B2C0003D1786800F019FEA9E0FF2387F8213063
:102B3C0001233B74FF23FB730023BB737B681B7B5C
:102B4C00C3F10B0387F8203097F8203087F8273033
:102B5C00002387F8263040E097F827307A68134432
:102B6C00BB6197F82330052B11D83B7C1A4697F89C
:102B7C00233042FA03F303F00103002B14BF0123AB
:102B8C000023DAB2BB781946B86900F09FFDBB6927
:102B9C001A7807F10E031146184600F0B8FDBB6910
:102BAC001A7807F10F031146184600F0C3FD97F889
:102BBC0027300A2B04D897F827300133DBB200E01A
:102BCC00002387F8273007F110031846FDF766FB42
:102BDC0097F82630013387F8263097F826300B2BE0
:102BEC00BAD9BB7B1A46FB7BD31AFF2B17DC00230D
:102BFC0087F825300FE097F825307A68D15CFA7B9E
:102C0C0097F825308A1AD1B27A68D15497F82530C2
:102C1C00013387F8253097F825300B2BEBD9BB7B8C
:102C2C00F82B2CD9002387F8243020E097F8243097
:102C3C007A681344FB61FB697B610023FB747B693D
:102C4C001B78062B03D87B6900221A7005E07B6980
:102C5C001B78063BDAB27B691A7000BF0021F86959
:102C6C0000F055FD97F82430013387F8243097F89D
:102C7C0024300B2BDAD902E000BF00E000BF28376C
:102C8C00BD4680BD80B58AB000AF78600B46FB7046
:102C9C001346BB70FB78292B40F2BB80FB782A3B98
:102CAC0087F82330032387F8223097F82330032B3F
:102CBC0000F2B18097F82330032B03D1786800F031
:102CCC0084FDA9E0FF2387F8213001233B74FF2307
:102CDC00FB730023BB737B68DB79C3F1060387F8B6
:102CEC00203097F8203087F82730002387F82630DB
:102CFC0040E097F827307A681344BB6197F823308B
:102D0C00022B11D83B7C1A4697F8233042FA03F376
:102D1C0003F00103002B14BF01230023DAB2BB78AC
:102D2C001946B86900F0D2FCBB691A7807F10E039A
:102D3C001146184600F0EBFCBB691A7807F10F033B
:102D4C001146184600F0F6FC97F82730052B04D8EE
:102D5C0097F827300133DBB200E0002387F82730E7
:102D6C0007F110031846FDF799FA97F8263001334E
:102D7C0087F8263097F82630062BBAD9BB7B1A4633
:102D8C00FB7BD31AFF2B17DC002387F825300FE0D1
:102D9C0097F825307A68D15CFA7B97F825308A1A37
:102DAC00D1B27A68D15497F82530013387F82530A1
:102DBC0097F82530062BEBD9BB7BFB2B2CD90023AA
:102DCC0087F8243020E097F824307A681344FB61AC
:102DDC00FB697B610023FB747B691B78032B03D895
:102DEC007B6900221A7005E07B691B78033BDAB221
:102DFC007B691A7000BF0021F86900F088FC97F815
:102E0C002430013387F8243097F82430062BDAD994
:102E1C0002E000BF00E000BF2837BD4680BD80B592
:102E2C008AB000AF78600B46FB701346BB70FB7822
:102E3C00232B40F2BB80FB78243B87F823300623FE
:102E4C0087F8223097F82330062B00F2B18097F8E0
:102E5C002330062B03D1786800F0EFFCA9E0FF23A8
:102E6C0087F8213001233B74FF23FB730023BB73D2
:102E7C007B68DB7FC3F11E0387F8203097F8203086
:102E8C0087F82730002387F8263040E097F8273062
:102E9C007A681344BB6197F82330052B11D83B7C1F
:102EAC001A4697F8233042FA03F303F00103002B80
:102EBC0014BF01230023DAB2BB781946B86900F0BD
:102ECC0005FCBB691A7807F10E031146184600F091
:102EDC001EFCBB691A7807F10F031146184600F067
:102EEC0029FC97F827301D2B04D897F8273001338D
:102EFC00DBB200E0002387F8273007F110031846F7
:102F0C00FDF7CCF997F82630013387F8263097F87F
:102F1C0026301E2BBAD9BB7B1A46FB7BD31AFF2B50
:102F2C0017DC002387F825300FE097F825307A68F6
:102F3C00D15CFA7B97F825308A1AD1B27A68D154D1
:102F4C0097F82530013387F8253097F825301E2B5C
:102F5C00EBD9BB7BF82B2CD9002387F8243020E04D
:102F6C0097F824307A681344FB61FB697B6100237A
:102F7C00FB747B691B78062B03D87B6900221A70C3
:102F8C0005E07B691B78063BDAB27B691A7000BFDF
:102F9C000021F86900F0BBFB97F82430013387F867
:102FAC00243097F824301E2BDAD902E000BF00E061
:102FBC0000BF2837BD4680BD80B58AB000AF7860B1
:102FCC000B46FB701346BB70FB781C2B40F2CF807A
:102FDC00FB781D3B87F82330072387F8223097F8BE
:102FEC002330072B00F2C58097F82330072B03D131
:102FFC00786800F064FCBDE0FF2387F821300023E3
:10300C003B74FF23FB730023BB737B681B7EC3F1F4
:10301C00170387F8203097F8203087F827300023E3
:10302C0087F8263054E097F827307A681344BB6150
:10303C0097F82330052B12D83B7C1A4697F823308F
:10304C0042FA03F303F00103002B14BF0123002306
:10305C00DAB2BB781946B86900F038FB12E097F881
:10306C002330062B0ED13B7C1846FDF79EF9034608
:10307C00002B14BF01230023DAB2BB781946B869C0
:10308C0000F024FBBB691A7807F10E0311461846B1
:10309C0000F03DFBBB691A7807F10F031146184687
:1030AC0000F048FB97F82730162B04D897F82730F8
:1030BC000133DBB200E0002387F8273007F110035F
:1030CC001846FDF7EBF897F82630013387F82630D1
:1030DC0097F82630172BA6D9BB7B1A46FB7BD31A45
:1030EC00FF2B17DC002387F825300FE097F82530ED
:1030FC007A68D15CFA7B97F825308A1AD1B27A6853
:10310C00D15497F82530013387F8253097F82530BE
:10311C00172BEBD9BB7BF72B2CD9002387F824304A
:10312C0020E097F824307A681344FB61FB697B61DB
:10313C000023FB747B691B78072B03D87B69002267
:10314C001A7005E07B691B78073BDAB27B691A7051
:10315C0000BF0021F86900F0DAFA97F82430013347
:10316C0087F8243097F82430172BDAD902E000BF07
:10317C0000E000BF2837BD4680BD80B58AB000AFE7
:10318C0078600B46FB701346BB70FB78142B40F237
:10319C00D080FB78153B87F82330082387F8223042
:1031AC0097F82330082B00F2C68097F82330082BB1
:1031BC0003D1786800F0E9F8BEE0FF2387F82130EE
:1031CC0000233B74FF23FB730023BB737B6893F8D2
:1031DC003C30C3F13B0387F8203097F8203087F858
:1031EC002730002387F8263054E097F827307A6888
:1031FC001344BB6197F82330062B12D83B7C1A463C
:10320C0097F8233042FA03F303F00103002B14BFA9
:10321C0001230023DAB2BB781946B86900F056FADC
:10322C0012E097F82330072B0ED13B7C1846FDF7A4
:10323C00BCF80346002B14BF01230023DAB2BB7881
:10324C001946B86900F042FABB691A7807F10E0307
:10325C001146184600F05BFABB691A7807F10F03A8
:10326C001146184600F066FA97F827303A2B04D826
:10327C0097F827300133DBB200E0002387F82730C2
:10328C0007F110031846FDF709F897F826300133BB
:10329C0087F8263097F826303B2BA6D9BB7B1A46ED
:1032AC00FB7BD31AFF2B17DC002387F825300FE0AC
:1032BC0097F825307A68D15CFA7B97F825308A1A12
:1032CC00D1B27A68D15497F82530013387F825307C
:1032DC0097F825303B2BEBD9BB7BF62B2CD9002355
:1032EC0087F8243020E097F824307A681344FB6187
:1032FC00FB697B610023FB747B691B78082B03D86B
:10330C007B6900221A7005E07B691B78083BDAB2F6
:10331C007B691A7000BF0021F86900F0F8F997F882
:10332C002430013387F8243097F824303B2BDAD93A
:10333C0002E000BF00E000BF2837BD4680BD80B46E
:10334C0085B000AF78600023FB7306E0FB7B7A68E6
:10335C000021D154FB7B0133FB73FB7B3B2BF5D959
:10336C007B68002283F83C207B68002283F83E2097
:10337C007B683D2283F83F207B68002283F83D2048
:10338C0000BF1437BD4680BC704780B485B000AF19
:10339C0078607B68002283F83D207B68002283F8EC
:1033AC003E207B683D2283F83F200023FB7325E001
:1033BC00FB7B7A68D35CBB737B6893F83E30BA7B3B
:1033CC009A420ED37B6893F83E207B6883F83D20AD
:1033DC007B68BA7B83F83E207B68FA7B83F83F20BE
:1033EC0009E07B6893F83D30BA7B9A4203D97B683D
:1033FC00BA7B83F83D20FB7B0133FB73FB7B3B2BC0
:10340C00D6D900BF00BF1437BD4680BC704780B40E
:10341C0083B000AF78607B681E22A3F8E0277B683E
:10342C000022C3F8E4277B680022C3F8E8277B68F6
:10343C000022A3F8EC277B680022C3F8F0277B68F6
:10344C000022A3F8F4277B68002283F8F6277B6818
:10345C00002283F8F7277B6818460C37BD4680BCE2
:10346C007047000080B500AF054800F060FA00F02E
:10347C007FFAFFF71DF8034800F0A6FA00BF80BDE5
:10348C008C000020A009002080B483B000AF7860CD
:10349C00034A7B68136000BF0C37BD4680BC704785
:1034AC009C09002080B582B000AF78607968034831
:1034BC0000F0AAFB00BF0837BD4680BDA009002064
:1034CC0080B584B000AF454800F0BFFB0346BB732A
:1034DC00434800F007FC03461A4607F10E03114659
:1034EC00184600F027F93F4800F0FCFB03461A464B
:1034FC0007F10E031146184600F01CF93A4800F08B
:10350C00ACFC03461A4607F10E031146184600F0B0
:10351C0011F9364800F059FD03467B73344800F02E
:10352C000FFE03461A4607F10D031146184600F02C
:10353C0001F93048FDF71BF903461A4607F10D0354
:10354C001146184600F0F6F82B4800F0B1FE034681
:10355C00FB737B7B002B34D0FB7B002B31D02048C2
:10356C00FDF7FBFC0346BB721E4800F047FA78726D
:10357C001D4800F079FA38721F4800F0A7FAF8716C
:10358C001A4800F0D7FAB871194800F009FB7871A5
:10359C001848FDF708F938713B1D1846FDF714FE65
:1035AC0003463B70FA793B789A4204D17B7B01331A
:1035BC00DBB27B7305E07B7BFA7B9A4201D3002361
:1035CC007B737A7B07F10E031146184600F0B2F8B4
:1035DC00BB7B18461037BD4680BD00BF8C00002059
:1035EC008C080020D4080020140900203C0900207D
:1035FC0060090020700900203009002080B500AF60
:10360C00024800F00DFF0346184680BDA0090020BB
:10361C0080B500AF034800F00EFF034800F019FF1F
:10362C0000BF80BD8C000020A009002080B582B0B6
:10363C0000AF0346FB71FB791946064800F016FFF4
:10364C00054800F0D5FFFEF729FF00BF0837BD463F
:10365C0080BD00BF8C000020A009002080B485B084
:10366C0000AF78607B680022DA727B6800221A73E4
:10367C007B680B225A730023FB731EE0FB7B7A687A
:10368C00D35CBB737B681B7BBA7B9A420AD37B6887
:10369C001A7B7B68DA727B68BA7B1A737B68FA7B5D
:1036AC005A7307E07B68DB7ABA7B9A4202D97B6853
:1036BC00BA7BDA72FB7B0133FB73FB7B092BDDD905
:1036CC0000BF00BF1437BD4680BC704780B483B0C8
:1036DC0000AF78600B46FB701346BB70BB78002BB9
:1036EC0007D07B681A78FB781344DAB27B681A70BF
:1036FC0008E07B681A78FB78D31ADBB20133DAB2B4
:10370C007B681A7000BF0C37BD4680BC704780B414
:10371C0083B000AF78600B46FB707B681B78FA783F
:10372C009A4202D97B68FA781A7000BF0C37BD46F2
:10373C0080BC704780B483B000AF78600B46FB70E0
:10374C007B681B78FA789A4202D27B68FA781A70F6
:10375C0000BF0C37BD4680BC704780B485B000AF4D
:10376C0078607B6800225A737B6800229A737B68AE
:10377C000D22DA730023FB731EE0FB7B7A68D35CAB
:10378C00BB737B689B7BBA7B9A420AD37B689A7B20
:10379C007B685A737B68BA7B9A737B68FA7BDA73A3
:1037AC0007E07B685B7BBA7B9A4202D97B68BA7B69
:1037BC005A73FB7B0133FB73FB7B0B2BDDD900BFF7
:1037CC0000BF1437BD4680BC704780B485B000AFD5
:1037DC0078607B6800221A727B6800225A727B68C0
:1037EC0008229A720023FB731EE0FB7B7A68D35C81
:1037FC00BB737B685B7ABA7B9A420AD37B685A7A32
:10380C007B681A727B68BA7B5A727B68FA7B9A72F5
:10381C0007E07B681B7ABA7B9A4202D97B68BA7B39
:10382C001A72FB7B0133FB73FB7B062BDDD900BFCC
:10383C0000BF1437BD4680BC704780B485B000AF64
:10384C0078607B68002283F820207B68002283F854
:10385C0021207B68202283F822200023FB7325E0A3
:10386C00FB7B7A68D35CBB737B6893F82130BA7BA3
:10387C009A420ED37B6893F821207B6883F8202032
:10388C007B68BA7B83F821207B68FA7B83F8222043
:10389C0009E07B6893F82030BA7B9A4203D97B68A5
:1038AC00BA7B83F82020FB7B0133FB73FB7B1E2B45
:1038BC00D6D900BF00BF1437BD4680BC704780B45A
:1038CC0085B000AF78607B6800225A767B68002256
:1038DC009A767B681922DA760023FB731EE0FB7B59
:1038EC007A68D35CBB737B689B7EBA7B9A420AD3A3
:1038FC007B689A7E7B685A767B68BA7B9A767B6803
:10390C00FA7BDA7607E07B685B7EBA7B9A4202D957
:10391C007B68BA7B5A76FB7B0133FB73FB7B172BE3
:10392C00DDD900BF00BF1437BD4680BC704780B5E1
:10393C0082B000AF78607B68184600F0B6FE7B68FA
:10394C000022C3F8E4277B680022C3F8E8277B68D1
:10395C000022A3F8EC277B680022C3F8F0277B68D1
:10396C001E22A3F8E02700BF0837BD4680BD00002B
:10397C0080B500AF0C4800F0C1FE0C48FCF7A4FF6A
:10398C000B48FFF7DCFC0B4800F0C5FE0A4800F0C2
:10399C00E4FE0A4800F006FF094800F025FF09483C
:1039AC00FCF727FF00BF80BD8C0000208C08002096
:1039BC00D4080020140900203C0900203009002004
:1039CC00600900207009002080B582B000AF7860DB
:1039DC007B6800221A707B6800225A817B68002267
:1039EC00DA607B6840F6B8321A617B68013318469E
:1039FC00FDF73EFB00BF0837BD4680BD80B584B0E7
:103A0C0000AF78600223FB730023BB737B6893F8D1
:103A1C003E301A467B6893F83D30D31A012B1ADDE1
:103A2C007B6893F83F301A467B6893F83C3013441C
:103A3C005A1C0C4B83FB021313445911D317C91A8C
:103A4C000B461B015B1A9B00D11ACBB21846FCF734
:103A5C0065FC034602E0FF233B733B7B18461037A3
:103A6C00BD4680BD8988888880B584B000AF7860F9
:103A7C000223FB730023BB737B689B7E1A467B6817
:103A8C005B7ED31A012B17DD7B68DB7E1A467B68C5
:103A9C001B7E13445A1C0C4B83FB02139910D31737
:103AAC00C91A0B465B000B44DB00D11ACBB218468B
:103ABC00FCF734FC034602E0FF233B733B7B1846C8
:103ACC001037BD4680BD00BFABAAAA2A80B584B012
:103ADC0000AF78600223FB730123BB737B685B7AB6
:103AEC001A467B681B7AD31A012B19DD7B689B7AEB
:103AFC001A467B68DB7913445A1C0D4B83FB02136B
:103B0C0013449910D317C91A0B46DB005B1AD11A50
:103B1C00CBB20133DBB21846FCF700FC034602E0E3
:103B2C00FF233B733B7B18461037BD4680BD00BF5F
:103B3C009324499280B584B000AF78600223FB7364
:103B4C000123BB737B6893F821301A467B6893F88A
:103B5C002030D31A012B1ADD7B6893F822301A46D9
:103B6C007B68DB7F13445A1C0C4B83FB02131344FE
:103B7C001911D317C91A0B465B015B1AD11ACBB2B8
:103B8C000133DBB21846FCF7C9FB034602E0FF2306
:103B9C003B733B7B18461037BD4680BD43082184E0
:103BAC0080B584B000AF78600223FB730123BB7334
:103BBC007B689B7B1A467B685B7BD31A012B19DDD8
:103BCC007B68DB7B1A467B681B7B13445A1C0D4BB2
:103BDC0083FB02135910D317C91A0B465B000B4415
:103BEC009B00D11ACBB20133DBB21846FCF796FB23
:103BFC00034602E0FF233B733B7B18461037BD4660
:103C0C0080BD00BFABAAAA2A80B584B000AF786093
:103C1C003960FCF795FA0346BB600123FB6008E0B2
:103C2C003A687B68013319685B6811605360002344
:103C3C00FB60FB68002BF3D107F108031846FCF777
:103C4C008EFA00BF1037BD4680BDB0B588B000AF4E
:103C5C0078600024FCF774FA0346FB6001237B6157
:103C6C0014E07B68D3F8D837FB617B68D3F8D43782
:103C7C00FA699A4202D8002400250BE07B68D3F83D
:103C8C00D437FA69D31ABB6100237B617B69002BA3
:103C9C00E7D1012507F10C031846FCF760FA012D5A
:103CAC001BD100BF0023FB7405E0FB695B08FB61C3
:103CBC00FB7C0133FB74FB69002BF6D105E0FB7C2C
:103CCC005B08FB74BB695B08BB61FB7C002BF6D10A
:103CDC00BB69FF2B28BFFF23DCB2234618462037D5
:103CEC00BD46B0BDB0B586B000AF78600024FCF71F
:103CFC0027FA0346BB6001233B6114E07B6893F811
:103D0C003E30FB757B6893F83D30FA7D9A4202D8C1
:103D1C00002400250BE07B6893F83D30FA7DD31A24
:103D2C00BB7500233B613B69002BE7D1012507F1F3
:103D3C0008031846FCF713FA012D40F0898000BFE8
:103D4C00FB7D1C2B49D90023BB7305E0FB7D5B0875
:103D5C00FB75BB7B0133BB73FB7D002BF6D1BB7BAF
:103D6C00013BBB73BB7B0C2B0BD9BB7B0D2B06D93F
:103D7C00BB7B0E2B01D9112327E0122325E0132343
:103D8C0023E0BB7B082B10D9BB7B0A2B06D9BB7B52
:103D9C000B2B01D9152318E0172316E0BB7B092B3D
:103DAC0001D9192311E01C230FE0BB7B062B06D98C
:103DBC00BB7B072B01D9202307E0242305E0BB7B29
:103DCC00052B01D92A2300E03323BB81BB7DBA89A3
:103DDC0002FB03F31B12FB7339E0FB7D0C2B03D9A5
:103DEC00BB7D9B08FB7332E0FB7D082B11D9BB7D9F
:103DFC000A2B0BD8BB7D062B06D8BB7D032B01D918
:103E0C00012304E0002302E0022300E00323FB7300
:103E1C001DE0FB7D042B0CD9BB7D052B06D8BB7D8F
:103E2C00022B01D9012302E0002300E00223FB73E3
:103E3C000DE0FB7D022B07D9BB7D022B01D90123A1
:103E4C0000E00023FB7302E0BB7D5B08FB73FC7B93
:103E5C00234618461837BD46B0BDB0B586B000AF86
:103E6C0078600024FCF76CF90346BB6001233B61CE
:103E7C0011E07B689B7EFB757B685B7EFA7D9A42CA
:103E8C0002D8002400250AE07B685B7EFA7DD31AF9
:103E9C00BB7500233B613B69002BEAD1012507F17F
:103EAC0008031846FCF75BF9012D40F0898000BF30
:103EBC00FB7D1C2B49D90023BB7305E0FB7D5B0804
:103ECC00FB75BB7B0133BB73FB7D002BF6D1BB7B3E
:103EDC00013BBB73BB7B0C2B0BD9BB7B0D2B06D9CE
:103EEC00BB7B0E2B01D9112327E0122325E01323D2
:103EFC0023E0BB7B082B10D9BB7B0A2B06D9BB7BE1
:103F0C000B2B01D9152318E0172316E0BB7B092BCB
:103F1C0001D9192311E01C230FE0BB7B062B06D91A
:103F2C00BB7B072B01D9202307E0242305E0BB7BB7
:103F3C00052B01D92A2300E03323BB81BB7DBA8931
:103F4C0002FB03F31B12FB7339E0FB7D0C2B03D933
:103F5C00BB7D9B08FB7332E0FB7D082B11D9BB7D2D
:103F6C000A2B0BD8BB7D062B06D8BB7D032B01D9A6
:103F7C00012304E0002302E0022300E00323FB738F
:103F8C001DE0FB7D042B0CD9BB7D052B06D8BB7D1E
:103F9C00022B01D9012302E0002300E00223FB7372
:103FAC000DE0FB7D022B07D9BB7D022B01D9012330
:103FBC0000E00023FB7302E0BB7D5B08FB73FC7B22
:103FCC00234618461837BD46B0BDB0B586B000AF15
:103FDC0078600024FCF7B4F80346BB6001233B6116
:103FEC0014E07B6893F82130FB757B6893F82030E4
:103FFC00FA7D9A4202D8002400250BE07B6893F8E6
:10400C002030FA7DD31ABB7500233B613B69002B32
:10401C00E7D1012507F108031846FCF7A0F8012D9C
:10402C0040F0898000BFFB7D1C2B49D90023BB735A
:10403C0005E0FB7D5B08FB75BB7B0133BB73FB7D34
:10404C00002BF6D1BB7B013BBB73BB7B0C2B0BD981
:10405C00BB7B0D2B06D9BB7B0E2B01D9112327E083
:10406C00122325E0132323E0BB7B082B10D9BB7B49
:10407C000A2B06D9BB7B0B2B01D9152318E0172370
:10408C0016E0BB7B092B01D9192311E01C230FE08F
:10409C00BB7B062B06D9BB7B072B01D9202307E062
:1040AC00242305E0BB7B052B01D92A2300E0332315
:1040BC00BB81BB7DBA8902FB03F31B12FB7339E096
:1040CC00FB7D0C2B03D9BB7D9B08FB7332E0FB7D86
:1040DC00082B11D9BB7D0A2B0BD8BB7D062B06D820
:1040EC00BB7D032B01D9012304E0002302E0022352
:1040FC0000E00323FB731DE0FB7D042B0CD9BB7D7F
:10410C00052B06D8BB7D022B01D9012302E000232D
:10411C0000E00223FB730DE0FB7D022B07D9BB7D76
:10412C00022B01D9012300E00023FB7302E0BB7DCD
:10413C005B08FB73FC7B234618461837BD46B0BDA5
:10414C00B0B586B000AF78600024FBF7F9FF0346EA
:10415C00BB6001233B6111E07B689B7BFB757B683B
:10416C005B7BFA7D9A4202D8002400250AE07B682A
:10417C005B7BFA7DD31ABB7500233B613B69002B3B
:10418C00EAD1012507F108031846FBF7E8FF012DDA
:10419C0040F0898000BFFB7D1C2B49D90023BB73E9
:1041AC0005E0FB7D5B08FB75BB7B0133BB73FB7DC3
:1041BC00002BF6D1BB7B013BBB73BB7B0C2B0BD910
:1041CC00BB7B0D2B06D9BB7B0E2B01D9112327E012
:1041DC00122325E0132323E0BB7B082B10D9BB7BD8
:1041EC000A2B06D9BB7B0B2B01D9152318E01723FF
:1041FC0016E0BB7B092B01D9192311E01C230FE01E
:10420C00BB7B062B06D9BB7B072B01D9202307E0F0
:10421C00242305E0BB7B052B01D92A2300E03323A3
:10422C00BB81BB7DBA8902FB03F31B12FB7339E024
:10423C00FB7D0C2B03D9BB7D9B08FB7332E0FB7D14
:10424C00082B11D9BB7D0A2B0BD8BB7D062B06D8AE
:10425C00BB7D032B01D9012304E0002302E00223E0
:10426C0000E00323FB731DE0FB7D042B0CD9BB7D0D
:10427C00052B06D8BB7D022B01D9012302E00023BC
:10428C0000E00223FB730DE0FB7D022B07D9BB7D05
:10429C00022B01D9012300E00023FB7302E0BB7D5C
:1042AC005B08FB73FC7B234618461837BD46B0BD34
:1042BC00B0B586B000AF78600024FBF741FF034631
:1042CC00BB6001233B6111E07B685B7AFB757B680B
:1042DC001B7AFA7D9A4202D8002400250AE07B68FA
:1042EC001B7AFA7DD31ABB7500233B613B69002B0B
:1042FC00EAD1012507F108031846FBF730FF012D21
:10430C0040F0898000BFFB7D1C2B49D90023BB7377
:10431C0005E0FB7D5B08FB75BB7B0133BB73FB7D51
:10432C00002BF6D1BB7B013BBB73BB7B0C2B0BD99E
:10433C00BB7B0D2B06D9BB7B0E2B01D9112327E0A0
:10434C00122325E0132323E0BB7B082B10D9BB7B66
:10435C000A2B06D9BB7B0B2B01D9152318E017238D
:10436C0016E0BB7B092B01D9192311E01C230FE0AC
:10437C00BB7B062B06D9BB7B072B01D9202307E07F
:10438C00242305E0BB7B052B01D92A2300E0332332
:10439C00BB81BB7DBA8902FB03F31B12FB7339E0B3
:1043AC00FB7D0C2B03D9BB7D9B08FB7332E0FB7DA3
:1043BC00082B11D9BB7D0A2B0BD8BB7D062B06D83D
:1043CC00BB7D032B01D9012304E0002302E002236F
:1043DC0000E00323FB731DE0FB7D042B0CD9BB7D9C
:1043EC00052B06D8BB7D022B01D9012302E000234B
:1043FC0000E00223FB730DE0FB7D022B07D9BB7D94
:10440C00022B01D9012300E00023FB7302E0BB7DEA
:10441C005B08FB73FC7B234618461837BD46B0BDC2
:10442C0080B483B000AF78607B681B7818460C377B
:10443C00BD4680BC704780B483B000AF78607B68A9
:10444C004FF49672A3F8E02700BF0C37BD4680BC32
:10445C00704780B483B000AF78607B6847F230520D
:10446C001A6100BF0C37BD4680BC704780B586B062
:10447C0000AF78600B46FB707B687B61FB78FB744C
:10448C007B69184600F07AFA7B69B3F8D0373B8227
:10449C003B8A5B007A691344FB60FB681A887B6972
:1044AC00B3F8E0379A4204D97B69B3F8E027FB688C
:1044BC001A80FB7C002B0DD0FB681A887B69B3F843
:1044CC00E0379A4210D2FB681B8801339AB2FB6822
:1044DC001A8009E0FB681B88002B05D0FB681B8841
:1044EC00013B9AB2FB681A803B8A03F548739BB276
:1044FC00184600F060FA03467B813B8A03F5617332
:10450C009BB2184600F057FA03463B817B69D3F8FF
:10451C00E4277B69D3F8E8379A4209DD7B69D3F845
:10452C00E4277B69C3F8E8277B697A89A3F8EC2731
:10453C007B69B3F8DC3703F5C8739BB2184600F0FF
:10454C003AFA03461A463B8A93420CBF01230023D6
:10455C00DBB2002B05D07B69D3F8E4277B69C3F869
:10456C00F0273B8A002B17D17B69D3F8E8371A4622
:10457C007B69C3F8D8277B69B3F8EC277B69A3F870
:10458C00DC277B69D3F8F0371A467B69C3F8D4274C
:10459C007B690022C3F8E8277B69D3F8E427798983
:1045AC007B6933F811305B00D21A7B69C3F8E427BE
:1045BC007B69D3F8E43739897A6932F811201A44C7
:1045CC007B69C3F8E4277B69D3F8E437398A7A69C5
:1045DC0032F811201A447B69C3F8E42700BFFB783A
:1045EC001946786800F022F900BF1837BD4680BD27
:1045FC0080B582B000AF78607B685B8901339AB27A
:10460C007B685A817B681B78052B03D07B681B78F1
:10461C00042B0DD17B685B8940F27D42934207D914
:10462C007B680122DA607B6803221A70FFF7A0F91D
:10463C007B681B78032B03D07B681B78022B30D153
:10464C007B685B89B3F57A7F2BD37B685B89A3F599
:10465C007A739AB27B685A817A68137A23F00803CA
:10466C0013727B6801331846FDF727F87B6801331A
:10467C00184600F02DF97B685B7ADBB283F00103FE
:10468C00DAB27B685A727B68DB685A1C7B68DA602A
:10469C007B68DA687B681B699A4202D97B680222C4
:1046AC001A7000BF0837BD4680BD80B485B000AF1E
:1046BC0078600023FB8107E0FA897B68002123F8EE
:1046CC001210FB890133FB81FB89B3F57A7FF3D39D
:1046DC007B680022A3F8D0277B680022C3F8D82778
:1046EC007B6840F2E932A3F8DC277B680022C3F830
:1046FC00D42700BF1437BD4680BC704780B483B04C
:10470C0000AF78607B681E22A3F8E02700BF0C374F
:10471C00BD4680BC704780B485B000AF7860002384
:10472C00FB7306E0FB7B7A680021D154FB7B0133E1
:10473C00FB73FB7B172BF5D97B6800221A767B6801
:10474C0000229A767B681922DA767B6800225A76E8
:10475C0000BF1437BD4680BC704780B485B000AF35
:10476C0078600023FB7306E0FB7B7A680021D15450
:10477C00FB7B0133FB73FB7B1E2BF5D97B68002283
:10478C00DA777B68002283F821207B68202283F86B
:10479C0022207B68002283F8202000BF1437BD46FE
:1047AC0080BC704780B485B000AF78600023FB7389
:1047BC0006E0FB7B7A680021D154FB7B0133FB7351
:1047CC00FB7B062BF5D97B680022DA717B68002213
:1047DC005A727B6808229A727B6800221A7200BF98
:1047EC001437BD4680BC704780B485B000AF78608C
:1047FC000023FB7306E0FB7B7A680021D154FB7B22
:10480C000133FB73FB7B0B2BF5D97B6800221A73EE
:10481C007B6800229A737B680D22DA737B68002216
:10482C005A7300BF1437BD4680BC704780B584B046
:10483C0000AF78600B46FB707B68B3F8D037FB8118
:10484C007B6893F8F737002B28D17B68B3F8DC37FB
:10485C00FA89D31A9BB203F2E9339BB2184600F0E3
:10486C00AAF80346642B0ED97B68B3F8DC27FB89C6
:10487C00D31A9BB203F57A739BB2184600F09BF8DF
:10488C000346012B01D8012300E00023002B05D0A7
:10489C0000F0A8F87B68CA2283F8F7277B6893F8A6
:1048AC00F737002B0FD07B6893F8F737013BDAB260
:1048BC007B6883F8F7277B6893F8F727FB78194612
:1048CC00786800F037F900BF1037BD4680BD000096
:1048DC0080B586B000AF78607868FDF75DFD244B3D
:1048EC001B68002B2FD07B689B791846FBF716FDB5
:1048FC00B8747B685B797B747B681B793B747B68D1
:10490C00DB78FB737B689B78BB737B685B787B7312
:10491C007B681B783B737B68DB79C3F30003DBB2EA
:10492C00FB747B68DB79C3F3C003DBB27B757B68FC
:10493C00DB79C3F38003DBB23B750D4B1B6807F1CE
:10494C000C02104698477B689B790F2B0BD1094BB7
:10495C001B78002B07D0074B1B78012B03D07968F1
:10496C000548FBF7C5FF00BF1837BD4680BD00BF2B
:10497C009C090020A00900208C08002080B483B082
:10498C0000AF78607B68B3F8D03740F2E6329342E0
:10499C0008D87B68B3F8D03701339AB27B68A3F898
:1049AC00D02703E07B680022A3F8D02700BF0C3788
:1049BC00BD4680BC704780B485B000AF0346FB8019
:1049CC00FB88FB8103E0FB89A3F57A73FB81FB89F0
:1049DC00B3F57A7FF7D2FB8918461437BD4680BCF5
:1049EC007047000080B584B000AF07F1080318468B
:1049FC0000F0E6F83B4607F1080292E8030083E872
:104A0C000300BB7B474A1278002A14BF0122002204
:104A1C00D2B21344DBB2BB7307F108031846FCF7A0
:104A2C004CFE07F108031846FCF765FDBA7B3E4BBC
:104A3C009A71BB7B002B6CD13B4B1A463B4603CB8C
:104A4C0010605160384B00229A717B7B012B47D14F
:104A5C003648FBF7E3FD3548FBF703FE03461A46E1
:104A6C00FB7B62F30003FB733048FBF715FE034638
:104A7C001A46FB7B62F38203FB732C48FBF71DFE8B
:104A8C0003461A46FB7B62F3C303FB7307F108036F
:104A9C001846FCF730FDFB7BC3F30003D9B2224A66
:104AAC00D37961F30003D371FB7BC3F38003D9B2D9
:104ABC001D4AD37961F38203D371FB7BC3F3C0032B
:104ACC00D9B2194AD37961F3C303D3711748FBF7F1
:104ADC00D8FD03461946144AD37961F34103D371C7
:104AEC003B7B232B05D17B7B592B02D10F48FBF74A
:104AFC00ACFD0C4B1B78012B94BF01230023DBB2C4
:104B0C005AB2084B1B785BB213405BB2DAB2054B5E
:104B1C001A700549064800F0B9F800BF1037BD46B9
:104B2C0080BD00BF91090020940900208C09002051
:104B3C00A009002080B582B000AF78600B46FB70F6
:104B4C001346BB707B68B3F8F427FB789BB2134415
:104B5C009AB27B68A3F8F427BB78652B0ED17B68DF
:104B6C00B3F8F437322B01D9022200E000227B6823
:104B7C0083F8F6277B680022A3F8F427BB78002B78
:104B8C0019D17B6893F8F6377A68B2F8F427322A91
:104B9C0001D9012200E000221344DAB27B6883F8C9
:104BAC00F6277B680022A3F8F4277B6893F8F63786
:104BBC00184600F045F900BF0837BD4680BD00001F
:104BCC0090B583B000AF78602848FCF7C6F903466F
:104BDC001A467B689A717C682548FEF70FFF607156
:104BEC007C682448FEF740FF20717C682248FEF761
:104BFC006DFFE0707C682148FEF79CFFA0707C681C
:104C0C001F48FEF7CDFF60707C681E48FBF7CBFD9C
:104C1C0020701D48FBF735FD034619467A68D37999
:104C2C0061F34103D3711848FBF736FD034619466F
:104C3C007A68D37961F38203D3711348FBF711FDC2
:104C4C00034619467A68D37961F30003D3710E4891
:104C5C00FBF733FD034619467A68D37961F3C30336
:104C6C00D37100BF0C37BD4690BD00BF8C0800202F
:104C7C00D408002014090020300900203C09002031
:104C8C0060090020700900208C09002080B584B0D8
:104C9C0000AF78603960FEF713FC0346FB73FB7BB7
:104CAC00012B09D97B681B78052B0ED000F0BEF9BF
:104CBC007B6805221A7008E07B681B78052B04D1F1
:104CCC0000F0BAF97B6804221A707B681B78052BFC
:104CDC00FBD801A252F823F0FD4C00081D4D000832
:104CEC003B4E0008F94D00089D4D0008714D000821
:104CFC00FB7B002B03D07B6801221A7096E07B684B
:104D0C005B7ADBB283F00103DAB27B685A7293E010
:104D1C00FB7B002B10D17B6800221A707B685B7ABE
:104D2C00DBB283F00103DAB27B685A727B68013321
:104D3C001846FCF79DF97FE07B6800225A817B685E
:104D4C003A6801331168526819605A603868FFF785
:104D5C00BFFD7B685B7ADBB283F00103DAB27B6860
:104D6C005A7269E07B6800225A817B683A68013389
:104D7C001168526819605A603868FFF7A9FD7B68A2
:104D8C005B7ADBB283F00103DAB27B685A7253E0D0
:104D9C0000F0F0F90346642B8CBF01230023DBB237
:104DAC00002B1AD07A68137A23F0080313727B68ED
:104DBC0001331846FCF781FC7B6801331846FFF77A
:104DCC0087FD7B6800225A817B685B7ADBB283F0BB
:104DDC000103DAB27B685A722EE07B6803221A70E8
:104DEC00FEF7C6FD7B680022DA6025E000F0C2F910
:104DFC000346642B8CBF01230023DBB2002B18D09D
:104E0C007B685B89C82B04D97B685B89B3F5487FC9
:104E1C0011D37B6804221A707B685B89C72B03D87B
:104E2C007B6800225A8107E000BF4EE74DE700BFC8
:104E3C0002E000BF00E000BF1037BD4680BD00BFE0
:104E4C0080B586B000AF0346FB7107F10C03184622
:104E5C00FFF7B6FEBA7C6C4B1B781344DBB2BB7409
:104E6C0007F10C031846FCF728FC674B1B785B001A
:104E7C00DAB2654B1A70BB7C3B2B09D107F10C03E2
:104E8C001846FCF75BFC0346002B01D0012300E025
:104E9C0000231A465C4B1B781344DAB25A4B1A7037
:104EAC00594B1B78012B00F0AA80FB791946574807
:104EBC00FCF77AF8BB7C002B62D1554800F064F902
:104ECC007B7C002B5CD102E0524800F078F9514811
:104EDC00FEF7CAFD0346DBB2232B09D84D48FEF77B
:104EEC00C3FD0346DAB23B7C9A4201D0012300E0B9
:104EFC000023002BE8D13B7C002B41D14648FEF728
:104F0C00E5FD0346DBB2072B94BF01230023DBB284
:104F1C00002B06D0404800F069F902E03F4800F051
:104F2C007CF93E48FEF706FE0346DBB2312B09D86E
:104F3C003A48FEF7FFFD0346DAB2BB7B9A4201D03A
:104F4C00012300E00023002BE8D1BB7B012B17D100
:104F5C003348FEF725FE0346DBB2122B94BF012328
:104F6C000023DBB2002B02D02D4800F06DF97B7BC7
:104F7C00012B05D13B7B992B02D82A48FBF7C0FBB0
:104F8C00FB79032B02D0FB79012B01D1012300E02B
:104F9C000023FB75BB7CFA7D19461D48FBF782FC90
:104FAC001B48FEF79FFE0346002B14BF0123002372
:104FBC00DBB2002B23D0BB7CFA7D19461A48FBF7D9
:104FCC0077FABB7CFA7D19461248FBF759FCBB7C7F
:104FDC00FA7D19461048FBF72FFCBB7CFA7D19466D
:104FEC000E48FBF73BFCBB7CFA7D19460C48FBF7E3
:104FFC0011FCBB7CFA7D19460A48FBF79FFB00BFEE
:10500C001837BD4680BD00BF910900208C080020D8
:10501C00D408002014090020300900203C0900208D
:10502C0060090020700900208C09002080B500AFB9
:10503C00FDF72AF900BF80BD80B582B000AFFDF747
:10504C0031F94448FEF701FE0346002B0CBF012347
:10505C000023FB71FB79002B02D03F48FBF734FC9B
:10506C003D48FEF73FFE0346002B0CBF01230023F7
:10507C00DAB2FB791343DBB2002B14BF01230023FC
:10508C00FB71FB79002B02D03448FEF758F93348FA
:10509C00FEF728FE0346002B0CBF01230023DAB2D7
:1050AC00FB791343DBB2002B14BF01230023FB71EC
:1050BC00FB79002B02D02A48FFF72DFB2848FEF77E
:1050CC00CCFE0346002B0CBF01230023DAB2FB7984
:1050DC001343DBB2002B14BF01230023FB71FB79BC
:1050EC00002B05D01F48FFF75DFB1F48FFF735FB72
:1050FC001D48FEF76AFF0346002B0CBF012300235B
:10510C00DAB2FB791343DBB2002B14BF012300236B
:10511C00FB71FB79002B02D01448FFF765FB134899
:10512C00FFF70EF80346002B0CBF01230023DAB265
:10513C00FB791343DBB2002B14BF01230023FB715B
:10514C00FB79002B02D00A48FBF753FB00BF083752
:10515C00BD4680BD8C0000208C080020D4080020A7
:10516C0014090020300900203C09002060090020AF
:10517C007009002080B500AF0248FEF766FD0346BB
:10518C00184680BD8C00002080B483B000AF7860DE
:10519C007B6893F83C303A2B08D87B6893F83C300A
:1051AC000133DAB27B6883F83C2003E07B68002291
:1051BC0083F83C2000BF0C37BD4680BC704780B4E0
:1051CC0083B000AF78607B681B7E162B06D87B689B
:1051DC001B7E0133DAB27B681A7602E07B68002210
:1051EC001A7600BF0C37BD4680BC704780B483B0C4
:1051FC0000AF78607B68DB79052B06D87B68DB79A0
:10520C000133DAB27B68DA7102E07B680022DA7172
:10521C0000BF0C37BD4680BC704780B483B000AF74
:10522C0078607B68DB7F1D2B06D87B68DB7F0133C6
:10523C00DAB27B68DA7702E07B680022DA7700BFAB
:10524C000C37BD4680BC704780B483B000AF78602B
:10525C007B681B7B0A2B06D87B681B7B0133DAB27D
:10526C007B681A7302E07B6800221A7300BF0C374C
:10527C00BD4680BC7047000080B500AF084B1B6872
:10528C005A1C07490A60002B0CBF01230023DBB218
:10529C00002B02D00348FEF7BAF800BF80BD00BF58
:1052AC00880800208C00002080B500AFFFF7E4FFD9
:1052BC0080BD000080B586B000AF7860284B1B68BD
:1052CC00002B48D07B681878FBF756F803463B73E5
:1052DC007B685878FBF750F803467B737B689878AB
:1052EC00FBF74AF80346BB737B68D878FBF744F8A6
:1052FC000346FB737B681879FBF73EF803463B7457
:10530C007B685879FBF738F803467B747B6898798F
:10531C00FBF732F80346BB747B68DB79002B01D0BA
:10532C00012300E00023FB747B681B7A002B01D067
:10533C00012300E000233B757B685B7A002B01D0D6
:10534C00012300E000237B75054B1B6807F10C0261
:10535C001046984700E000BF1837BD4680BD00BF1F
:10536C00BC09002080B500AF064B1B68002B01D197
:10537C00002304E0034B1B689847034600BF184604
:10538C0080BD00BFB809002080B582B000AF786046
:10539C0039607B681878FAF7EFFF03461A463B68CA
:1053AC001A707B685878FAF7E7FF03461A463B6891
:1053BC005A707B689878FAF7DFFF03461A463B6809
:1053CC009A707B68D878FAF7D7FF03461A463B6881
:1053DC00DA707B681879FAF7CFFF03461A463B68F8
:1053EC001A717B685879FAF7C7FF03461A463B686F
:1053FC005A717B689879FAF7BFFF03461A463B68E7
:10540C009A717B68DB79002B01D0012200E000222D
:10541C003B68DA717B681B7A002B01D0012200E01B
:10542C0000223B681A727B685B7A002B01D0012248
:10543C0000E000223B685A7200BF0837BD4680BDB1
:10544C0080B582B000AF786039600B4A7B6813601E
:10545C000A4A3B6813600A4B00221A603B68002B17
:10546C0001D0084B00E0002319460748FCF7A3FEC7
:10547C0000BF0837BD4680BDB8090020BC0900201C
:10548C00B4090020C15200087153000880B582B0E5
:10549C0000AFFDF73BF80346FB80B7F90620264B1F
:1054AC001B681344244A1360234B1B6841F63F725C
:1054BC009342CCBF01230023DBB2002B0FD01E4B39
:1054CC001B68A3F5FA531C4A13601C4B1B6840F273
:1054DC00E632DA62194B40F2E632DA6022E0164B21
:1054EC001B68174A9342B4BF01230023DBB2002B85
:1054FC000FD0114B1B6803F5FA530F4A13600F4B77
:10550C001B684FF47A72DA620C4B4FF47A72DA60E1
:10551C0008E00A4B1B6840F2E732DA62074B40F2B4
:10552C00E732DA60FFF71EFF03461846FEF77EF8F7
:10553C0000BF0837BD4680BDB4090020600B0020B9
:10554C00C1E0FFFF80B586B000AF78607B68002BB0
:10555C000BD007F10C031846FCF77BFE07F10C038C
:10556C0079681846FFF710FF00E000BF1837BD46FA
:10557C0080BD80B500AFFCF77FFE0346184680BDAA
:10558C0080B483B000AF03460A46FB711346BB716F
:10559C00BB799AB2FB7907499B000B44DB889A4292
:1055AC002CBF01230023DBB218460C37BD4680BC50
:1055BC00704700BF440B002080B400AF0D4B1B782C
:1055CC00DBB203F00103002B02D04FF0FF330CE0F1
:1055DC0072B600BF074B1B78DBB243F00103DAB2A3
:1055EC00044B1A7062B600BF00231846BD4680BC3F
:1055FC00704700BF400B00200FB480B582B000AFE5
:10560C0000BFFFF7D9FF0346002BFADB07F11403A9
:10561C003B603B683A694FF4C071154803F0ECF9F4
:10562C0078607B68B3F5BE7F08D9124A0321124813
:10563C0003F07EF940F27F137B600BE07B680C4A31
:10564C0013440C4A0321184603F072F902467B6896
:10565C0013447B607B689BB21A460549074802F0ED
:10566C00F1FA00BF0837BD46BDE8804004B0704772
:10567C00C0090020649300083D0B0020A80B0020FB
:10568C0080B400AF054B1B78DBB223F00103DAB218
:10569C00024B1A7000BFBD4680BC7047400B002007
:1056AC0080B582B000AF0C4B5B690B4A43F0010331
:1056BC005361094B5B6903F001037B607B6800223B
:1056CC0000210E2000F053FD0E2000F06CFD00BFF9
:1056DC000837BD4680BD00BF0010024080B588B0C1
:1056EC0000AF07F1100300221A605A609A60DA606A
:1056FC002A4B9B69294A43F010039361274B9B6902
:10570C0003F01003FB60FB68244B9B69234A43F0B6
:10571C0020039361214B9B6903F02003BB60BB68A2
:10572C001E4B9B691D4A43F0040393611B4B9B6901
:10573C0003F004037B607B68184B9B69174A43F0AA
:10574C0008039361154B9B6903F008033B603B68AE
:10575C0000224FF40051124801F07DF94FF4005330
:10576C003B6101237B610023BB610223FB6107F1D9
:10577C00100319460A4800F0D3FF40233B61002375
:10578C007B610123BB6107F110031946054800F04A
:10579C00C7FF00BF2037BD4680BD00BF00100240D0
:1057AC0000100140000C014080B582B000AF4021D8
:1057BC000A4801F039F90346FB71FB79002B14BF41
:1057CC0001230023DBB21A464FF40051044801F0C8
:1057DC0042F9FB7918460837BD4680BD000C0140E4
:1057EC0000100140F0B59DB008AF7860FFF7C1FE26
:1057FC000346052B20D801A252F823F021580008AB
:10580C00275800082D58000833580008395800084C
:10581C003F580008264BFB6411E0264BFB640EE05E
:10582C00254BFB640BE0254BFB6408E0244BFB642D
:10583C0005E0244BFB6402E0234BFB6400BF7B6858
:10584C001B781A467B685B7819467B689B781C46EC
:10585C007B681B791D467B685B791E467B689B7950
:10586C003B607B68DB79002B01D0322300E03123D5
:10587C0007F10C0006933B6805930496039502947C
:10588C0001910092FB6C114A402103F051F8002168
:10589C000020FFF775FE0346002B04D007F10C0324
:1058AC001846FFF7A9FE00BF5437BD46F0BD00BF38
:1058BC00809300088C93000898930008A493000828
:1058CC00B0930008BC930008C8930008D493000858
:1058DC0080B584B000AF00F0EDFA00F08FF8FFF760
:1058EC00FDFEFFF7DDFE00F017FA00F0A5F9002130
:1058FC000020FFF745FE0346002B02D03548FFF78A
:10590C007BFE0A2000F038FB00210020FFF738FE58
:10591C000346002B02D03048FFF76EFE00212F48C3
:10592C00FFF78EFD2E4801F00FFD00210020FFF740
:10593C0027FE0346002B02D02A48FFF75DFE00230A
:10594C00FB604FF47A7000F017FB4FF0FF3301222D
:10595C002549264802F0EAF8FB680133FB60F96838
:10596C00234BA3FB01235A0913461B019B1A9B00D3
:10597C00CA1A002A09D100210020FFF701FE0346B4
:10598C00002B02D01B48FFF737FEFFF7F2FD034652
:10599C00FB72FB7A002BD4D0FB7A012BD1D00021E7
:1059AC000020FFF7EDFD0346002B03D0F9681248E9
:1059BC00FFF722FE3B461846FFF7C4FD7B78002B11
:1059CC0003D03B461846FFF70DFF4FF47A7000F0FA
:1059DC00D3FAEFE7FC93000814940008B5570008BD
:1059EC00600B00202494000844940008A80B0020AD
:1059FC0089888888489400084C94000880B590B039
:105A0C0000AF07F1180328220021184603F002F812
:105A1C003B1D00221A605A609A60DA601A610123F9
:105A2C00BB614FF48033FB6100237B6307F11803E8
:105A3C00184601F029F80346002B01D000F03EF87F
:105A4C000F237B600123BB600023FB6000233B61C1
:105A5C0000237B613B1D0021184601F097FA034699
:105A6C00002B01D000F02AF800BF4037BD4680BDA6
:105A7C0080B582B000AF78607B681B68B3F1804F53
:105A8C0006D1FFF703FD044B1B680133024A136078
:105A9C0000BF0837BD4680BD580B002080B582B0D2
:105AAC0000AF78607B68044A934201D1FFF7E8FDB0
:105ABC0000BF0837BD4680BDA80B002080B400AFE6
:105ACC0072B600BF00BFFDE780B485B000AF154BC8
