:020000040800F2
:10000000005000209D710008616E0008696E0008B4
:1000100000000000000000000000000000000000E0
:10002000000000000000000000000000716E0008E9
:1000300000000000000000007B6E0008856E0008D4
:100040001D720008000000001D7200081D720008EB
:100050001D7200081D7200081D720008936E0008D2
:10006000000000001D7200081D720008A96E000843
:100070001D7200081D72000800000000C16E00081B
:100080000000000000000000000000000000000070
:100090001D720008000000001D7200081D7200089B
:1000A000000000001D7200080000000000000000B9
:1000B000D96E00081D72000800000000000000005A
:1000C00010B5064C2378002B07D1054B002B02D02E
:1000D000044800E000BF0123237010BD6000002031
:1000E0000000000004B50008044B10B5002B03D03D
:1000F0000349044800E000BF10BDC04600000000F6
:100100006400002004B5000803B4714649084000AB
:100110004900095E49008E4403BC70470022430831
:100120008B4274D303098B425FD3030A8B4244D3BF
:10013000030B8B4228D3030C8B420DD3FF22090201
:1001400012BA030C8B4202D31212090265D0030BC0
:100150008B4219D300E0090AC30B8B4201D3CB03B6
:10016000C01A5241830B8B4201D38B03C01A5241F8
:10017000430B8B4201D34B03C01A5241030B8B42FA
:1001800001D30B03C01A5241C30A8B4201D3CB02E5
:10019000C01A5241830A8B4201D38B02C01A5241CA
:1001A000430A8B4201D34B02C01A5241030A8B42CD
:1001B00001D30B02C01A5241CDD2C3098B4201D3E5
:1001C000CB01C01A524183098B4201D38B01C01A63
:1001D000524143098B4201D34B01C01A52410309DA
:1001E0008B4201D30B01C01A5241C3088B4201D389
:1001F000CB00C01A524183088B4201D38B00C01A36
:10020000524143088B4201D34B00C01A5241411A5C
:1002100000D20146524110467047FFE701B5002069
:1002200000F0F0F802BDC0460029F7D076E770472D
:1002300003460B437FD4002243088B4274D3030947
:100240008B425FD3030A8B4244D3030B8B4228D3E8
:10025000030C8B420DD3FF22090212BA030C8B420E
:1002600002D31212090265D0030B8B4219D300E0AE
:10027000090AC30B8B4201D3CB03C01A5241830B33
:100280008B4201D38B03C01A5241430B8B4201D3E3
:100290004B03C01A5241030B8B4201D30B03C01A0C
:1002A0005241C30A8B4201D3CB02C01A5241830A86
:1002B0008B4201D38B02C01A5241430A8B4201D3B5
:1002C0004B02C01A5241030A8B4201D30B02C01ADF
:1002D0005241CDD2C3098B4201D3CB01C01A524146
:1002E00083098B4201D38B01C01A524143098B42CF
:1002F00001D34B01C01A524103098B4201D30B01B8
:10030000C01A5241C3088B4201D3CB00C01A5241DC
:1003100083088B4201D38B00C01A524143088B42A1
:1003200001D34B00C01A5241411A00D2014652413A
:10033000104670475DE0CA0F00D04942031000D359
:100340004042534000229C4603098B422DD3030AAE
:100350008B4212D3FC22890112BA030A8B420CD3BE
:10036000890192118B4208D3890192118B4204D3E7
:1003700089013AD0921100E08909C3098B4201D367
:10038000CB01C01A524183098B4201D38B01C01AA1
:10039000524143098B4201D34B01C01A5241030918
:1003A0008B4201D30B01C01A5241C3088B4201D3C7
:1003B000CB00C01A524183088B4201D38B00C01A74
:1003C0005241D9D243088B4201D34B00C01A52414B
:1003D000411A00D20146634652415B10104601D3D8
:1003E0004042002B00D54942704763465B1000D362
:1003F000404201B5002000F005F802BD0029F8D008
:1004000016E770477047C046002B11D1002A0FD164
:10041000002900D1002802D00021C943080007B4F8
:10042000024802A14018029003BDC046D9FFFFFF59
:1004300003B4684601B5029800F006F8019B9E4699
:1004400002B00CBC7047C046F0B557464E46454614
:10045000DE46E0B504000D009246994683B08B421B
:1004600030D82DD04946504600F0BAF82900060091
:10047000200000F0B5F8331A9846203B34D49B4650
:1004800053465A46934042461F00534693401E002F
:10049000AF423BD8AF4200D179E05B46A41BBD41DF
:1004A000002B00DA76E00022002300920193012362
:1004B0005A4693400193012342469340009329E01A
:1004C0008242CFD900220023009201930C9B002B83
:1004D00001D01C605D600098019903B0F0BCBB4680
:1004E000B246A946A046F0BD42469B4620239B1A31
:1004F0005246DA40414613004A468A4017004246B7
:100500001F43534693401E00AF42C3D9002200232D
:10051000009201934346002BD8D0FB0772081A4380
:1005200046467B080EE0AB4201D1A2420CD8A41A89
:100530009D41012024196D410021013E24184D41A7
:10054000002E06D0AB42EED9013E24196D41002E9B
:10055000F8D1009801995B4600196941002B24DB12
:100560002B005A464646D3402A001C00F2405B4608
:100570001500002B2ADB26009E403300260047464C
:10058000BE403200801A9941009001919EE7A3423B
:10059000BCD882E74246202300219B1A002200910A
:1005A00001920122DA40019285E7424620239B1AFC
:1005B0002A0046469A402300F340464613432A0049
:1005C0001C00F2405B461500002BD4DA2023424683
:1005D0002F009B1B97402600DE403B003343CDE7B6
:1005E00010B5002903D100F007F8203002E0080020
:1005F00000F002F810BDC0461C2101231B049842E4
:1006000001D3000C10391B0A984201D3000A0839A3
:100610001B09984201D30009043902A2105C40185A
:100620007047C046040302020101010100000000FE
:100630000000000080B582B000AFEFF310837B6054
:1006400072B67B68012213401800BD4602B080BD1F
:1006500080B582B000AF78607B681B68002B00D14A
:1006600062B6C046BD4602B080BD80B582B000AF64
:1006700078600A00FB1C1A707B6800225A807B6835
:1006800000221A80C046BD4602B080BD80B582B04F
:1006900000AF78607B685B889AB20E490023914274
:1006A0005B41DBB2002B07D07B685B889BB20133D8
:1006B0009AB27B685A8009E07B6800225A807B6886
:1006C0001B889BB201339AB27B681A80C046BD4634
:1006D00002B080BD5EEA000080B584B000AF7860F3
:1006E00008001100FB1C021C1A70BB1C0A1C1A70AB
:1006F0007B685B889BB21900FB1C1B785A1F130098
:100700009B059B1A9B019B185B009B18DB00CB1879
:10071000FB6004E0FB680C4A94466344FB60FB68A2
:100720000A4A9342F6DC04E0FB68094A94466344B3
:10073000FB60FB68074A9342F6DBFB681BB21800BC
:10074000BD4604B080BDC046A015FFFF3075000057
:1007500060EA0000D18AFFFF80B582B000AF786008
:100760007B681B889BB2044A9A429B415B42DBB286
:100770001800BD4602B080BD1502000080B582B0F1
:1007800000AF78607B681B889BB221229A429B4114
:100790005B42DBB21800BD4602B080BD80B582B0BE
:1007A00000AF78607B681B781B071B0FDBB2082B40
:1007B00015D87B681B781B071B0FDBB201331A1C93
:1007C0000F231340DAB27B680F210A4010001A7819
:1007D0000F218A43111C021C0A431A7024E07B6813
:1007E0001A780F218A431A707B681B781B061B0F2F
:1007F000DBB2082B13D87B681B781B061B0FDBB200
:1008000001331A1C0F231340DAB27B6810011A78E7
:100810000F210A40111C021C0A431A7004E07B6875
:100820001A780F210A401A70C046BD4602B080BD3A
:10083000B0B584B000AF0200FB1D1A700F257C1903
:10084000FB1D1B780A211800FFF768FC03002370CA
:100850002C003B191B780F221340DAB20C257B19B0
:1008600010011A780F210A40111C021C0A431A7049
:100870003B191B781A1C5201D21A9200D31ADB18AA
:10088000DAB2FB1D1B78D318DBB21A1C0F231340FE
:10089000DAB27B190F210A4010001A780F218A431F
:1008A000111C021C0A431A707B191B78181CBD46C8
:1008B00004B0B0BD80B582B000AF3B1D18703B1DC9
:1008C0001B781B071B0FDBB21A003B1D1B781B0696
:1008D0001B0FDBB2191C8900CB18DB18DBB2D31855
:1008E000DBB21800BD4602B080BD80B584B000AF59
:1008F0000200FB1D1A700F203B18FA1D12781A70A7
:100900003B181B780F221340D9B23B181B781B09E8
:10091000DAB23B184A401A703B181B780322134086
:10092000D9B23B181B789B08DAB23B184A401A70C0
:100930003B181B7801221340D9B23B181B785B0887
:10094000DAB23B184A401A703B181B781800BD46B3
:1009500004B080BD90B583B000AF04000800110062
:10096000FB1D221C1A70BB1D021C1A707B1D0A1C69
:100970001A707B1D1B78002B0CD0BB1D1B7801222D
:100980009A4013005AB2FB1D1B785BB213435BB253
:10099000DBB20DE0BB1D1B7801229A4013005BB255
:1009A000DB435BB2FA1D127852B213405BB2DBB28A
:1009B0001800BD4603B090BD90B583B000AF78601D
:1009C0000A00FB1C1A70FB1C1B78002B10D07B68E4
:1009D0001B785BB2DBB27A68127852B27F3A511E52
:1009E0008A41D2B29B18DBB25AB27B681A7013E00C
:1009F0007B681B785BB2D9B27B6800229A567E2353
:100A00005B42D417D80F9A4244412300DBB2CB1A81
:100A1000DBB25AB27B681A70C046BD4603B090BDC7
:100A200080B582B000AF786008001100FB1C021C8A
:100A30001A70BB1C0A1C1A70FB1C1B780F3B2B2B5B
:100A400049D89A00264BD3181B689F46BB1C1B78BD
:100A50005A1E9341DAB27B681A703CE07B685A1CDC
:100A6000BB1C1B78591E8B41DBB219001000FFF72D
:100A7000A3FF30E07B689A1CBB1C1B78591E8B417E
:100A8000DBB219001000FFF797FF24E07B689A1C87
:100A9000BB1C1B78013B591E8B41DBB219001000B7
:100AA000FFF78AFF17E07B68DA1CBB1C1B78591E16
:100AB0008B41DBB219001000FFF77EFF0BE07B6873
:100AC0001A1DBB1C1B78591E8B41DBB2190010008C
:100AD000FFF772FFC046C046BD4602B080BDC046AB
:100AE0001CB6000880B582B000AF78607B685B7888
:100AF0005BB2002B02DD7B6800229A707B680022CB
:100B00005A707B680022DA70C046BD4602B080BDD4
:100B100080B582B000AF78607B6800221A71C04651
:100B2000BD4602B080BD80B582B000AF78607B6802
:100B30009B785BB2DB43DBB2DB09DBB21800BD465E
:100B400002B080BD80B582B000AF78607B681B7852
:100B50001800BD4602B080BD80B582B000AF78609D
:100B60007B685B785BB2DA17D31ADB0FDBB2180055
:100B7000BD4602B080BD80B582B000AF78607B68B2
:100B8000DB785BB2DA17D31ADB0FDBB21800BD4695
:100B900002B080BD80B582B000AF7860080011005F
:100BA000FB1C021C1A70BB1C0A1C1A707868BB1C48
:100BB0001A78FB1C1B78190002F020F8C046BD46CD
:100BC00002B080BD80B582B000AF78607B6818004D
:100BD00002F00DF97B68180002F01FF9031CDBB26C
:100BE0005A425341DBB2002B04D07B680E3318000D
:100BF00002F0FDF8C046BD4602B080BD80B582B0AF
:100C000000AF786008001100FB1C021C1A70BB1CAE
:100C10000A1C1A707868BB1C1A78FB1C1B78190018
:100C200002F02BF97B680E331800BB1C1A78FB1CF2
:100C30001B781900FFF7AEFFC046BD4602B080BD6D
:100C4000F0B585B000AF78607B680F257C1918007F
:100C500002F00CFA030023707B680E330E26BC19D9
:100C6000180002F003FA030023707A19BB191278F6
:100C70001B789A4202D27B191B7802E00E23FB18E4
:100C80001B781800BD4605B0F0BD90B585B000AF2B
:100C900078607B68180002F0C0F8031C1A1C0C2452
:100CA0003B191A707B680E33180002F0B6F8031C6B
:100CB0001A1C08217B181A703B191B78FF2B03D0D4
:100CC0007B181B78FF2B04D10C23FB18FF221A7012
:100CD0000BE00C217B181A780823FB181B781B01EA
:100CE000DBB2D318DAB27B181A700C23FB181B780E
:100CF000181CBD4605B090BD80B582B000AF7860CD
:100D00007B68180002F0B6FA7B680E33180002F018
:100D1000B1FAC046BD4602B080BD80B582B000AF1A
:100D2000786008001100FB1C021C1A70BB1C0A1C16
:100D30001A707868BB1C1A78FB1C1B78190002F02B
:100D4000C2FAC046BD4602B080BD80B582B000AFD9
:100D5000786008001100FB1C021C1A70BB1C0A1CE6
:100D60001A707868BB1C1A78FB1C1B78190002F0FB
:100D7000A3FBC046BD4602B080BD80B582B000AFC7
:100D8000786008001100FB1C021C1A70BB1C0A1CB6
:100D90001A707868BB1C1A78FB1C1B78190002F0CB
:100DA00084FCC046BD4602B080BD80B582B000AFB5
:100DB000786008001100FB1C021C1A70BB1C0A1C86
:100DC0001A707868BB1C1A78FB1C1B78190002F09B
:100DD00065FDC046BD4602B080BD80B582B000AFA3
:100DE000786008001100FB1C021C1A70BB1C0A1C56
:100DF0001A707868BB1C1A78FB1C1B78190002F06B
:100E00005CFEC046BD4602B080BD80B582B000AF7A
:100E100078607B68180002F060FF7B684622FF2143
:100E200099547B684722FF219954C046BD4602B0C1
:100E300080BD90B585B000AF7860396008243A195C
:100E40003B681000190008231A0009F013FF3B1932
:100E5000180000F0BCFE3B19180000F092FE7B6801
:100E600040331A003B191100180001F0CBFB7B68DE
:100E7000462200219954C046BD4605B090BD90B5AC
:100E80008DB000AF78600A00FB1C1A707B683E22B0
:100E90009B5C19007B683D229B5CCB1A0C2B06DD0A
:100EA0007B68180000F03EFB0300032B01D10123F7
:100EB00000E00023002B59D07B68180002F03AFFB5
:100EC0002A23FB1832221A707B683E229B5CCD2BB2
:100ED00046D92F23FB1800221A701EE02F23FB187F
:100EE0001B787A68D3183B621F23FB1800221A7004
:100EF0003B6A1B78322B03D83B6A00221A7005E04C
:100F00003B6A1B78323BDAB23B6A1A70C0462F222A
:100F1000BB18BA18127801321A702F23FB181B78ED
:100F20003B2BDBD97B683E229B5C323BD9B27B6892
:100F30003E2299547B683D33BB611723FB18002286
:100F40001A70BB691B78322B03D8BB6900221A7058
:100F500005E0BB691B78323BDAB2BB691A70C04648
:100F60007B684622995C7B6847229954FB1C1B785E
:100F7000002B2BD17B683C229B5C1A007B689B1862
:100F80003B610F23FB18FF221A703B691B78F82B7B
:100F900003D93B69FF221A7005E03B691B780633D1
:100FA000DAB23B691A70C0467B683C229A5C7B6867
:100FB0003F215B5C9A4200D0E4E07B6846229B5C68
:100FC0000633D9B27B6846229954DBE0FB1C1B78C0
:100FD000022B04D0FB1C1B78032B00D0D2E0FB1C9F
:100FE0001B78033B5A425341DAB22923FB181A708B
:100FF0007B683C229B5C002B05D07B683C229B5C81
:10100000013BDAB200E03B222E203B181A70282464
:101010003B192922BA18127851424A411A703B18DA
:101020001B787A68D15C3B191A783B181B788A18B0
:10103000D1B27A68D1547B683F229B5C3A1812780F
:101040009A4209D17B6846229A5C3B191B78D318D7
:10105000D9B27B68462299542E22BB181B780F2BDD
:1010600004D9BB181B78103BDBB204E02E23FB181D
:101070001B782C33DBB22E22BA1813702D23FB18E9
:1010800000221A702C23FB1803221A707B6840225E
:101090009A5C2B23FB18D2081A706EE027243B19A8
:1010A0002B22BA18127801210A401A7026203B1808
:1010B0002922B9183A19097812788A1A51424A41F4
:1010C0001A702E243B191B787A68D15C3B181A7869
:1010D0003B191B788A18D1B27A68D1547B683F22B9
:1010E0009B5C3A1912789A4209D17B6846229A5C35
:1010F0003B181B78D318D9B27B68462299542E220C
:10110000BB181B78002B04D0BB181B78013BDAB24C
:1011100000E03B222E23FB181A702B22BB18BA18B2
:10112000127852081A702C217B187A181278013222
:101130001A702D23FB181B78052B03D17B181B7805
:10114000052B05D82C23FB181B78072BA6D900E00C
:10115000C0462C23FB1800221A702D217B187A1808
:10116000127801321A707B6840331A007B181B78A2
:10117000D2182B23FB1812781A702D23FB181B781A
:10118000052BDFD97B683C229B5C3A2B05D87B681A
:101190003C229B5C0133DAB200E000227B683C21F8
:1011A0005A54C046BD460DB090BD80B59EB000AF4C
:1011B00078600A00FB1C1A707B683C229B5C002B49
:1011C00005D07B683C229B5C013BDAB200E03B220D
:1011D0007723FB181A707B683C229B5C142B05D983
:1011E0007B683C229B5C153BDBB204E07B683C22C5
:1011F0009B5C2733DBB27622BA181370FB1C1B787A
:10120000032B00D1C8E000DD13E1002B03D0022B3B
:1012100000D174E00DE17B683C229B5C1A007B6886
:101220009B183B665F23FB18FF221A703B6E1B78EE
:10123000F82B03D93B6EFF221A7005E03B6E1B783A
:101240000633DAB23B6E1A70C0467723FB181B7860
:101250007A68D318BB666723FB1800221A70BB6E2E
:101260001B78022B03D8BB6E00221A7005E0BB6E00
:101270001B78023BDAB2BB6E1A70C0467623FB18AD
:101280001B787A68D3183B676F23FB1800221A700B
:101290003B6F1B78022B03D83B6F00221A7005E0CE
:1012A0003B6F1B78023BDAB23B6F1A70C0467B681B
:1012B0003C229B5C3A2B05D87B683C229B5C01332B
:1012C000DAB200E0002275217B181A707B181B78B7
:1012D0007A68D318BB655723FB1800221A70BB6DC0
:1012E0001B78022B03D8BB6D00221A7005E0BB6D82
:1012F0001B78023BDAB2BB6D1A70C046E5E077237B
:10130000FB181B787A68D3183B643F23FB18FF2235
:101310001A703B6C1B78FD2B03D93B6CFF221A70B3
:1013200005E03B6C1B780133DAB23B6C1A70C046A7
:101330007B683C229B5C1A007B689B18BB6447233C
:10134000FB1800221A70BB6C1B78022B03D8BB6CF5
:1013500000221A7005E0BB6C1B78023BDAB2BB6C52
:101360001A70C0467623FB181B787A68D3183B6541
:101370004F23FB1800221A703B6D1B78022B03D8F9
:101380003B6D00221A7005E03B6D1B78023BDAB220
:101390003B6D1A70C04698E07623FB181B787A687C
:1013A000D318BB622723FB18FF221A70BB6A1B7875
:1013B000FD2B03D9BB6AFF221A7005E0BB6A1B78BC
:1013C0000133DAB2BB6A1A70C0467B683C229B5C70
:1013D0001A007B689B183B632F23FB1800221A70AE
:1013E0003B6B1B78022B03D83B6B00221A7005E085
:1013F0003B6B1B78023BDAB23B6B1A70C04677231B
:10140000FB181B787A68D318BB633723FB180022BC
:101410001A70BB6B1B78022B03D8BB6B00221A70AF
:1014200005E0BB6B1B78023BDAB2BB6B1A70C0469F
:101430004BE07B683C229B5C1A007B689B183B61FD
:101440000F23FB1800221A703B691B78022B03D86C
:101450003B6900221A7005E03B691B78023BDAB257
:101460003B691A70C0467723FB181B787A68D3183B
:10147000BB611723FB1800221A70BB691B78022B73
:1014800003D8BB6900221A7005E0BB691B78023BD8
:10149000DAB2BB691A70C0467623FB181B787A68EB
:1014A000D3183B621F23FB1800221A703B6A1B787B
:1014B000022B03D83B6A00221A7005E03B6A1B78B6
:1014C000023BDAB23B6A1A70C0467B683C229B5CE6
:1014D0003A2B05D87B683C229B5C0133DAB200E0F2
:1014E00000227B683C215A547B683E229B5C190099
:1014F0007B683D229B5CCB1A0C2B06DD7B681800B9
:1015000000F010F80300032B01D1012300E00023B9
:10151000002B03D07B68180002F00CFCC046BD46CF
:101520001EB080BD80B584B000AF78607B683E227D
:101530009B5C19007B683D229B5CCB1A0B2B1ADD50
:101540007B683C229A5C7B683F215B5CD31ADAB2F1
:101550000F23FB1876321A7005E00F22BB18BA1859
:1015600012783C3A1A700F22BB181B783B2BF4D828
:10157000BB181B7800E0FF231800BD4604B080BDF7
:1015800080B582B000AF78600A00FB1C1A707B68DF
:1015900046229B5CFF2B07D1FB1C1A787B6811004D
:1015A0001800FFF702FE06E0FB1C1A787B681100AA
:1015B0001800FFF764FCC046BD4602B080BD0000C5
:1015C00080B582B000AF78607B685B7812229A4267
:1015D00092415242D2B2002A2DD101229A401300E8
:1015E000174A1A40511E8A41D2B2002A1FD1154A09
:1015F0001A40511E8A41D2B2002A1AD10422134045
:101600005A1E9341DBB2002B15D07B681B78002B50
:101610000BD07B681B78181CFFF74CF903001A00ED
:101620000323134001D11D2306E01C2304E01F23E4
:1016300002E01E2300E000231800BD4602B080BD7A
:10164000AA0105005002020080B582B000AF7860A8
:101650007B6800229A717B6800225A717B680022A5
:101660001A717B6801229A707B6801225A707B682C
:1016700000221A707B680122DA707B68DA79012116
:101680008A43DA717B68DA7902218A43DA717B68EE
:10169000DA7904218A43DA717B68DA7908218A438E
:1016A000DA717B68DA7910218A43DA717B68DA793A
:1016B00020218A43DA717B68DA7940218A43DA7122
:1016C0007B68DA797F210A40DA71C046BD4602B0F4
:1016D00080BDB0B584B000AF78607B689B78312B5B
:1016E0006ED87B685B78122B6AD87B681B78992B45
:1016F00066D80E23FC187B689B78181CFFF7DAF875
:10170000030023707B685B78022B04D87B685B78CE
:101710000A339BB207E07B685B78181CFFF7CAF8B6
:101720000300023B9BB20C257A1913807B681B785F
:10173000181CFFF7BFF8030018007B685A780221D5
:10174000002391425B41DBB21A000B243B19821A41
:101750001A707B191B881A225343023B0A21180076
:10176000FEF766FD0300DAB20E23FB181B78D318D0
:10177000DAB23B191B78D318D9B23B191B789B08F6
:10178000DAB20F23FB188A181A7011E00F203B18E9
:101790003A181278073A1A703B181B78DB08D9B24E
:1017A0003B181B7807221340DAB23B188A181A70CC
:1017B0000F22BB181B78062BE8D8BB181B7800E05B
:1017C000FF231800BD4604B0B0BD80B584B000AFA3
:1017D00078607B681800FFF77CFF03001A000C217B
:1017E0007B181A700A00BB181B78002B02D1BB189B
:1017F00007221A700C23FB181B78181CBD4604B076
:1018000080BD90B583B000AF78607C687B681800BD
:10181000FFF7DBFF031CE370C046BD4603B090BD7D
:10182000B0B584B000AF78607B685B78022B05D8D8
:101830007B68DA7901218A43DA7196E07B685B780C
:10184000032B3DD17B689B78242B05D87B68DA7904
:1018500001218A43DA7188E00E257C197B68180023
:10186000FFF737FF0300237029007B181B78002B3C
:1018700013D07B689B781A007B181B78D31A242B13
:1018800005DC7B68DA7901218A43DA716DE07B68D7
:10189000DA7901210A43DA7167E07B681B7901225A
:1018A0009A429B415B42DAB27B6801210A401000F8
:1018B000DA7901218A43111C021C0A43DA7154E0CF
:1018C0007B685B780F2B05D87B68DA7901210A43A6
:1018D000DA714AE07B685B78102B41D17B689B789A
:1018E000242B05D87B68DA7901210A43DA713CE0C0
:1018F0000F257C197B681800FFF7EBFE03002370AF
:1019000029007B181B78002B13D07B689B781A006A
:101910007B181B78D31A242B05DC7B68DA7901212C
:101920000A43DA7121E07B68DA7901218A43DA71AE
:101930001BE07B681B79022B17D07B681A79012189
:10194000002391425B41DAB27B6801210A4010001A
:10195000DA7901218A43111C021C0A43DA7104E07E
:101960007B68DA7901218A43DA71C046BD4604B04A
:10197000B0BD80B582B000AF78607B689B78242BC7
:1019800005D97B681800FFF7A4FE031E01D00123D0
:1019900000E00023002B05D07B68DA7904218A431C
:1019A000DA717AE07B685B78032B34D17B68DB7972
:1019B000DB07DB0FDBB2002B16D07B681B79032B18
:1019C00005D17B685B79002B01D1012200E0002268
:1019D0007B6801210A409000DA7904218A43111CB6
:1019E000021C0A43DA7158E07B681B79012B05D190
:1019F0007B685B79002B01D0012200E000227B682C
:101A000001210A409000DA7904218A43111C021C4A
:101A10000A43DA7141E07B685B78102B34D17B6834
:101A2000DB79DB07DB0FDBB2002B16D07B681B7981
:101A3000022B05D17B685B79002B01D0012200E0ED
:101A400000227B6801210A409000DA7904218A4350
:101A5000111C021C0A43DA711FE07B681B79022B00
:101A600005D17B685B79002B01D1012200E00022C7
:101A70007B6801210A409000DA7904218A43111C15
:101A8000021C0A43DA7108E07B685B78122B04D8E9
:101A90007B68DA7904218A43DA71C046BD4602B018
:101AA00080BD80B584B000AF78600A00FB1C1A705E
:101AB0007B689B78012B0CD1FB1C1B78002B06D17B
:101AC0007B68DB791B07DB0FDBB2002B01D0012227
:101AD00000E000220F217B181A707B685B78012BD5
:101AE0001BD17B181B787A681279002A03D17A6897
:101AF0005279002A07D17A681279012A05D17A68C9
:101B00005279002A01D1012200E000221A400F235D
:101B1000FB18511E8A411A702CE07B685B78072BFA
:101B200007D07B685B78042B03D07B685B78102B35
:101B30001CD10F23FB181B787A681279012A03D174
:101B40007A685279002A07D17A681279022A05D177
:101B50007A685279002A01D1012200E000221A405D
:101B60000F23FB18511E8A411A7003E00F23FB1844
:101B700000221A700F23FB181B781800BD4604B012
:101B800080BD80B582B000AF78607B681800FFF739
:101B900038FE7B681800FFF743FE7B681800FFF7EC
:101BA000E8FE7B6800211800FFF77BFF03001900A7
:101BB0007B6801220A40D000DA7908218A43111C8F
:101BC000021C0A43DA71C046BD4602B080BD90B522
:101BD00083B000AF78607B685B79582B05D87B6851
:101BE00005331800FEF7DAFDB5E07B685B79592B09
:101BF00000D0B0E07B6800225A717B68DB795B071C
:101C0000DB0FDBB2002B1DD07B68DB79DB07DB0F42
:101C1000DBB201225340DBB2002B13D07B681B796F
:101C2000012B0FD17B6804331800FEF7B7FD7B68EA
:101C300004331800FEF7B2FD7B68DA7901210A430C
:101C4000DA7188E07B68DB795B07DB0FDBB2002BA6
:101C500010D07B68DB79DB07DB0FDBB2002B09D010
:101C60007B681B79022B05D17B68DA7901218A43D5
:101C7000DA7170E07B681B79222B05D87B6804330E
:101C80001800FEF78BFD66E07B681B79232B62D181
:101C90007B6800221A717B68DB78062B05D87B688D
:101CA00003331800FEF77AFD06E07B68DB78072B2C
:101CB00002D17B680122DA707B689B78181CFEF7E2
:101CC000F9FD03001C007B681800FFF779FC030096
:101CD0009C429B415B42DBB2002B05D07B68023308
:101CE0001800FEF75BFD36E07B689B78181CFEF75A
:101CF000E1FD03001C007B681800FFF761FC030096
:101D0000E31A5A425341DBB2002B24D07B680122F4
:101D10009A707B685B78112B05D87B6801331800BB
:101D2000FEF73CFD17E07B685B78122B13D17B68D4
:101D300001225A707B681B78982B04D87B681800A6
:101D4000FEF72CFD07E07B681B78992B03D17B689D
:101D500000221A70FFE7C046BD4603B090BD80B5B3
:101D600082B000AF78607B689B793A2B0ED87B6895
:101D70009B790133DAB27B689A717B689B790F2B70
:101D80002BD17B681800FFF7FCFE26E07B68DB792F
:101D90001B07DB0FDBB2002B10D07B689B793B2B42
:101DA0000CD17B685B79002B08D17B683C229A714F
:101DB0007B68DA7908218A43DA710EE07B689B79C7
:101DC0003B2B03D07B689B793C2B06D17B680022A0
:101DD0009A717B681800FFF7FAFEC046BD4602B054
:101DE00080BD000090B585B000AF78607B689B79BE
:101DF000002B06D07B689B790E2B02D8012300F0C4
:101E0000FDFB7B689B793C2B01D900F0ECFB9A0031
:101E1000D24BD3181B689F46022300F0EFFB7B6870
:101E2000DB795B06DB0FDBB2002B02D0012300F075
:101E3000E5FB0F23FB187A68D2799207D20F1A704C
:101E400000F0D3FB7B68DB791B06DB0FDBB2002BDA
:101E500002D0012300F0D2FB0F23FB187A68D2795D
:101E60005207D20F1A7000F0C0FB7B68DB799B062B
:101E7000DB0FDBB2002B02D0012300F0BFFB0F23EE
:101E8000FB187A68D279D207D20F1A7000F0ADFB36
:101E90007B68DB799B06DB0FDBB2002B02D00123D2
:101EA00000F0ACFB7B68DB79DB07DB0FDAB20F23DA
:101EB000FB1801214A401A7000F097FB0F23FB1812
:101EC0007A68D2791207D20F1A7000F08EFB0323C2
:101ED00000F094FB7B68DB79DB06DB0FDBB2002BC9
:101EE00003D17B685B79592B02D9012300F086FB73
:101EF0007B685B791B071B0FDBB21A0001231A40BA
:101F00000F23FB18511E8A411A7000F06EFB7B688C
:101F1000DB79DB06DB0FDBB2002B03D17B685B795F
:101F2000592B02D9012300F069FB7B685B791B0701
:101F30001B0FDBB21A0002231A400F23FB18511E9D
:101F40008A411A7051E37B68DB79DB06DB0FDBB279
:101F5000002B03D17B685B79592B01D901234DE319
:101F60007B685B791B071B0FDBB21A0004231A4046
:101F70000F23FB18511E8A411A7036E37B68DB7908
:101F8000DB06DB0FDBB2002B03D17B685B79592BBF
:101F900001D9012332E37B685B791B071B0FDBB29E
:101FA0001A0008231A400F23FB18511E8A411A7089
:101FB0001BE37B68DB79DB06DB0FDBB2002B03D195
:101FC0007B685B79592B01D9012317E37B685B7927
:101FD0001B061B0FDBB21A0001231A400F23FB184C
:101FE000511E8A411A7000E37B68DB79DB06DB0F48
:101FF000DBB2002B03D17B685B79592B01D901231C
:10200000FCE27B685B791B061B0FDBB21A00022324
:102010001A400F23FB18511E8A411A70E5E27B68B3
:10202000DB79DB06DB0FDBB2002B03D17B685B794E
:10203000592B01D90123E1E27B685B791B061B0F59
:10204000DBB21A0004231A400F23FB18511E8A41E9
:102050001A70CAE27B68DB79DB06DB0FDBB2002B90
:1020600003D17B685B79592B01D90123C6E27B68D8
:102070005B791800FEF739FC03001A000F23FB18E8
:10208000511E8A411A70B0E27B681B79232B01D95B
:102090000123B3E27B681B791B071B0FDBB21A001D
:1020A00001231A400F23FB18511E8A411A709CE22B
:1020B0007B681B79232B01D901239FE27B681B7965
:1020C0001B071B0FDBB21A0002231A400F23FB1859
:1020D000511E8A411A7088E27B681B79232B01D933
:1020E00001238BE27B681B791B071B0FDBB21A00F5
:1020F00004231A400F23FB18511E8A411A7074E200
:102100007B681B79232B01D9012377E27B681B793C
:102110001B071B0FDBB21A0008231A400F23FB1802
:10212000511E8A411A7060E27B681B79232B01D90A
:10213000012363E27B681B791B061B0FDBB21A00CD
:1021400001231A400F23FB18511E8A411A704CE2DA
:102150007B681B79232B03D901234FE2CCB60008FF
:102160007B681B791B061B0FDBB21A0002231A4087
:102170000F23FB18511E8A411A7036E27B681B79C7
:10218000232B01D9012339E27B681B791800FEF764
:10219000ACFB03001A000F23FB18511E8A411A7072
:1021A00023E27B689B78312B01D9012326E27B68EF
:1021B0009B781B071B0FDBB21A0001231A400F2369
:1021C000FB18511E8A411A700FE27B689B78312BF5
:1021D00001D9012312E27B689B781B071B0FDBB23E
:1021E0001A0002231A400F23FB18511E8A411A704D
:1021F000FBE17B689B78312B01D90123FEE17B68F1
:102200009B781B071B0FDBB21A0004231A400F2315
:10221000FB18511E8A411A70E7E17B689B78312BCD
:1022200001D90123EAE17B689B781B071B0FDBB216
:102230001A0008231A400F23FB18511E8A411A70F6
:10224000D3E17B689B78312B01D90123D6E17B68F0
:102250009B781B061B0FDBB21A0001231A400F23C9
:10226000FB18511E8A411A70BFE17B689B78312BA5
:1022700001D90123C2E17B689B781B061B0FDBB2EF
:102280001A0002231A400F23FB18511E8A411A70AC
:10229000ABE17B68DB78072B01D90123AEE17B68DA
:1022A000DB781A0001231A400F23FB18511E8A41C4
:1022B0001A709AE17B68DB78072B01D901239DE135
:1022C0007B68DB781A0002231A400F23FB18511E8B
:1022D0008A411A7089E17B68DB78072B01D90123D9
:1022E0008CE17B68DB781A0004231A400F23FB186B
:1022F000511E8A411A7078E17B685B78122B01D9F4
:1023000001237BE17B685B781B071B0FDBB21A00A4
:1023100001231A400F23FB18511E8A411A7064E1F1
:102320007B685B78122B01D9012367E17B685B78BE
:102330001B071B0FDBB21A0002231A400F23FB18E6
:10234000511E8A411A7050E17B685B78122B01D9CB
:10235000012353E17B685B781B071B0FDBB21A007C
:1023600004231A400F23FB18511E8A411A703CE1C6
:102370007B685B78122B01D901233FE17B685B7896
:102380001B071B0FDBB21A0008231A400F23FB1890
:10239000511E8A411A7028E17B685B78122B01D9A3
:1023A00001232BE17B685B781B061B0FDBB21A0055
:1023B00001231A400F23FB18511E8A411A7014E1A1
:1023C0007B681B78992B01D9012317E17B681B7867
:1023D0001B071B0FDBB21A0001231A400F23FB1847
:1023E000511E8A411A7000E17B681B78992B01D934
:1023F000012303E17B681B781B071B0FDBB21A006C
:1024000002231A400F23FB18511E8A411A70ECE078
:102410007B681B78992B01D90123EFE07B681B783F
:102420001B071B0FDBB21A0004231A400F23FB18F3
:10243000511E8A411A70D8E07B681B78992B01D90C
:102440000123DBE07B681B781B071B0FDBB21A0044
:1024500008231A400F23FB18511E8A411A70C4E04A
:102460007B681B78992B01D90123C7E07B681B7817
:102470001B061B0FDBB21A0001231A400F23FB18A7
:10248000511E8A411A70B0E07B681B78992B01D9E4
:102490000123B3E07B681B781B061B0FDBB21A001D
:1024A00002231A400F23FB18511E8A411A709CE028
:1024B0007B681B78992B01D901239FE07B681B78EF
:1024C0001B061B0FDBB21A0004231A400F23FB1854
:1024D000511E8A411A7088E07B681B78992B01D9BC
:1024E00001238BE07B681B781B061B0FDBB21A00F5
:1024F00008231A400F23FB18511E8A411A7074E0FA
:102500007B68DB78072B0BD87B689B78312B07D84F
:102510007B685B78122B03D87B681B78992B01D9D9
:1025200001236BE07B689B781B071B0FDBB2180055
:10253000FEF7DBF903001C007B689B781B061B0F72
:10254000DBB21800FEF7D1F903006340DCB27B6810
:102550005B781B071B0FDBB21800FEF7C6F9030000
:102560006340DCB27B685B781B061B0FDBB2180094
:10257000FEF7BBF903006340DCB27B68DB78180030
:10258000FEF7B3F903006340DCB27B681B781B07DE
:102590001B0FDBB21800FEF7A8F903006340DCB2A2
:1025A0007B681B781B061B0FDBB21800FEF79DF93A
:1025B00003001A000F23FB18A21A511E8A411A7039
:1025C00013E07B68DB791B07DB0FDBB2002B08D045
:1025D0007B685B79002B04D10F23FB1800221A7053
:1025E00003E000230AE0012308E00F23FB181B7817
:1025F000002B01D0032300E00223C0461800BD4693
:1026000005B090BD90B585B000AF786039603B688B
:1026100000221A703B6818787B68DB795B07DB0F58
:10262000DBB21A000321FEF795F903001A003B689C
:102630001A703B6818787B68DB79DB07DB0FDBB24D
:102640001A000421FEF786F903001A003B681A708D
:102650003B6818787B68DB79DB07DB0FDBB2012294
:102660005340DBB21A000521FEF774F903001A008B
:102670003B681A703B6818787B68DB791B07DB0FB7
:10268000DBB21A000621FEF765F903001A003B6869
:102690001A703B681B78012207211800FEF75AF9CF
:1026A00003001A003B681A707B685C797B685B7971
:1026B0001800FEF71AF903001A0007212000FEF7A0
:1026C00049F903001A003B685A707B681C797B68E3
:1026D0001B791800FEF709F903001A0006212000F3
:1026E000FEF738F903001A003B689A703B68987847
:1026F0007B689B78DB07DB0FDBB21A000721FEF754
:1027000029F903001A003B689A707B689B785B0884
:10271000DBB25AB27B68DB785BB25B015BB213431E
:102720005BB2DAB23B68DA707B685B785AB27B687E
:102730001B785BB25B015BB213435BB2DAB23B68FE
:102740001A717B689B781B071B0FDBB21800FEF722
:10275000CCF803001C007B689B781B061B0FDBB2C8
:102760001800FEF7C2F803006340DCB27B685B78B8
:102770001B071B0FDBB21800FEF7B7F8030063401E
:10278000DCB27B685B781B061B0FDBB21800FEF720
:10279000ACF803006340DCB27B68DB781800FEF71E
:1027A000A4F803006340DCB27B681B781B071B0F97
:1027B000DBB21800FEF799F803006340DCB27B68D7
:1027C0001B781B061B0FDBB21800FEF78EF8030008
:1027D0001A000F217B1862401A707B681B78DB0897
:1027E000D8B27B181B781A000521FEF7B3F8030056
:1027F0001A003B685A71C046BD4605B090BD80B511
:1028000082B000AF7860396001F01CFB3B681800B3
:1028100001F02EFB7B68180000F0E2F9C046BD46CF
:1028200002B080BD90B583B000AF786039607B683E
:102830009B793C681800FDF7FBFF031CA3713B6804
:102840007A6852795A713B687A6812791A713B68D2
:102850007A68D278DA703B687A6892789A703B68C6
:102860007A6852785A703B687A6812781A707B6876
:10287000DB79DB07DB0FDAB23B68DA717B68DB7987
:102880001B07DB0FDAB23B685A727B68DB795B07A8
:10289000DB0FDAB23B681A72C046BD4603B090BD8A
:1028A00090B585B000AF786008243B19180001F09E
:1028B000EDFA7A683B1911001800FFF7B3FFC04624
:1028C000BD4605B090BD80B500AF01F0BDFB030073
:1028D0001800BD4680BD000080B500AF034A1378E4
:1028E00001210B431370C046BD4680BD840000200B
:1028F00080B500AF034A137801218B431370C046A3
:10290000BD4680BD8400002080B582B000AF0200CB
:10291000FB1D1A70BB1D0A1C1A70BB1D1A78FB1D0B
:102920001978044B1800FDF7D7FE03001800BD46C8
:1029300002B080BD8000002090B583B000AFBC1D08
:1029400000F026F9030023803B1D852252001A80E7
:102950002B4B1B881BB21A0013005B019B189B00BA
:102960009B185B001A00274B1B889BB219001000B4
:10297000FDF75EFC03001A00BB1C1A80214B1B886C
:102980009BB20A33FF331A001E4B1B889BB21900FF
:102990001000FDF74DFC03005AB21B4B1A701A4B86
:1029A0001B785BB25A425341DBB2002B02D0164B6C
:1029B00001221A70BB1D1A88BB1C1B88D31A9AB23D
:1029C000BB1D1A80BB1D00229A5EFA23DB009A42CF
:1029D00003DDBB1DFA22D2001A80BB1D00229B5EC4
:1029E0000A4A934202DABB1D084A1A80BB1D002224
:1029F0009B5E180000F0AAF8C046BD4603B090BD2B
:102A000086000020800000207C00002030F8FFFFBE
:102A100080B584B000AF78600E23FB1805221A80C1
:102A20007B689A797B685B791B071B0FDBB2190007
:102A30001000FFF769FF03001A00354B1A807B680E
:102A40009B79052B60D17B6801211800FFF729F8DD
:102A5000031E04D02F4A137802218B4313702D4B91
:102A60001B789B07DB0FDBB2002B36D0294B1B7882
:102A7000DB07DB0FDBB2002B23D0274B1800FDF761
:102A80007DFE031E08D0224B1B881BB2DA179B1851
:102A900053409BB2042B05D81F4B1800FDF75CFE7A
:102AA000031E01D0012300E00023002B2CD0FFF7F0
:102AB00043FF01F0D5FA174A137802218B431370B4
:102AC00022E0154B1800FDF747FE031E1CD0114AEB
:102AD000137802218B43137016E00E4B1B78DB0733
:102AE000DB0FDBB2002B0FD07B685B791B071B0F62
:102AF000DBB21A00084B11001800FDF7B6FD054ABD
:102B0000137802210B431370C046BD4604B080BD4C
:102B100086000020840000208000002080B500AFE7
:102B2000034B1800FDF7B2FDC046BD4680BDC04650
:102B30008000002080B500AFC046BD4680BD80B596
:102B400000AF00231800BD4680BD000080B584B0F2
:102B500000AF0200BB1D1A80FDF76CFD0300BB60D7
:102B60000123FB6005E0094BBA1D12881A8000237F
:102B7000FB60FB68002BF6D10823FB181800FDF75B
:102B800067FDC046BD4604B080BDC0468800002039
:102B9000B0B584B000AF0025FDF74CFD03007B60AD
:102BA0000123FB60FB68002B09D00A217B180B4A2C
:102BB00012881A807B1800255D5F002400E0012444
:102BC0003B1D1800FDF744FD012C01D1C046FFDE7E
:102BD0002B001800BD4604B0B0BDC04688000020E0
:102BE00080B582B000AF7860034B7A681A60C04647
:102BF000BD4602B080BDC0460000002080B58AB04E
:102C000000AF786008001100FB1C021C1A70BB1C8E
:102C10000A1C1A70FB1C1B78352B00D8E1E023211D
:102C20007B18FA1C1278363A1A702223FB180422F9
:102C30001A707B181B78042B00D9D4E07B181B7802
:102C4000042B04D17B68180001F038FACCE0212372
:102C5000FB18FF221A701023FB1800221A700F2392
:102C6000FB18FF221A700E23FB1800221A707B68D3
:102C70009A7A20203B1809218A1A1A702723FB18F8
:102C80003A1812781A702623FB1800221A7046E0B0
:102C90002723FB181B787A68D318BB6123217B1884
:102CA0001B78032B12D81023FB181B781A007B18F3
:102CB0001B781A411300012213405A1E9341DAB2C5
:102CC000BB1C1978BB69180001F041FABB691A787E
:102CD0000E23FB181100180001F060FABB691A7886
:102CE0000F23FB181100180001F06DFA2722BB1802
:102CF0001B78082B04D8BB181B780133DAB200E02C
:102D000000222723FB181A701023FB181800FDF768
:102D100045FD2622BB18BA18127801321A702623F4
:102D2000FB181B78092BB3D90E23FB181B781A004C
:102D30000F23FB181B78D31AFF2B1CDC2523FB1851
:102D400000221A7012E025203B181B787A68D15CAB
:102D50000F23FB181A783B181B788A1AD1B27A68AD
:102D6000D1543B183A18127801321A702523FB18F7
:102D70001B78092BE7D90E23FB181B78FA2B33D9C4
:102D80002423FB1800221A7025E02423FB181B784B
:102D90007A68D318FB61FB697B611323FB1800225F
:102DA0001A707B691B78042B03D87B6900221A7088
:102DB00005E07B691B78043BDAB27B691A70C04678
:102DC000FB690021180001F0E9F92422BB18BA18A8
:102DD000127801321A702423FB181B78092BD4D9DE
:102DE00002E0C04600E0C046BD460AB080BD80B5E6
:102DF00082B000AF78607B689B7A082B06D87B682E
:102E00009B7A0133DAB27B689A7202E07B68002217
:102E10009A72C046BD4602B080BD80B584B000AF96
:102E200078600F23FB1802221A700E23FB18002271
:102E30001A707B681B7B1A007B68DB7AD31A012B24
:102E400011DD7B685B7B1A007B689B7AD3180133AA
:102E50000A211800FDF7D2FA0B00DBB21800FDF7CB
:102E6000E7FC031C05E00C217B18FF221A707B187D
:102E70001B78181CBD4604B080BD80B58AB000AF79
:102E8000786008001100FB1C021C1A70BB1C0A1C95
:102E90001A70FB1C1B78312B00D8E1E023217B1832
:102EA000FA1C1278323A1A702223FB1804221A7084
:102EB0007B181B78042B00D9D4E07B181B78042BDB
:102EC00004D17B68180001F0F9F8CCE02123FB184D
:102ED000FF221A701023FB1800221A700F23FB1810
:102EE000FF221A700E23FB1800221A707B689A7A50
:102EF00020203B1809218A1A1A702723FB183A1838
:102F000012781A702623FB1800221A7046E0272335
:102F1000FB181B787A68D318BB6123217B181B78B8
:102F2000032B12D81023FB181B781A007B181B7870
:102F30001A411300012213405A1E9341DAB2BB1CFE
:102F40001978BB69180001F002F9BB691A780E23E1
:102F5000FB181100180001F021F9BB691A780F2342
:102F6000FB181100180001F02EF92722BB181B785E
:102F7000082B04D8BB181B780133DAB200E000221A
:102F80002723FB181A701023FB181800FDF706FC06
:102F90002622BB18BA18127801321A702623FB18A1
:102FA0001B78092BB3D90E23FB181B781A000F23AB
:102FB000FB181B78D31AFF2B1CDC2523FB180022DF
:102FC0001A7012E025203B181B787A68D15C0F2319
:102FD000FB181A783B181B788A1AD1B27A68D15438
:102FE0003B183A18127801321A702523FB181B7807
:102FF000092BE7D90E23FB181B78FA2B33D924238E
:10300000FB1800221A7025E02423FB181B787A682D
:10301000D318FB61FB697B611323FB1800221A7034
:103020007B691B78042B03D87B6900221A7005E0AA
:103030007B691B78043BDAB27B691A70C046FB6976
:103040000021180001F0AAF82422BB18BA1812783F
:1030500001321A702423FB181B78092BD4D902E003
:10306000C04600E0C046BD460AB080BDB0B586B0DF
:1030700000AF78600024FDF7DDFA0300BB60012398
:103080003B6118E017217B187A68127B1A707B6805
:10309000DB7A7A1812789A4202D8002400250EE0D2
:1030A0007B68DA7A1623FB181721791809788A1AAF
:1030B0001A7000233B613B69002BE3D101250823F3
:1030C000FB181800FDF7C4FA012D00D0CDE0C04672
:1030D0001723FB181B781C2B00D86AE00E23FB1863
:1030E00000221A700BE01722BB18BA181278520887
:1030F0001A700E22BB18BA18127801321A701723F0
:10310000FB181B78002BEED10E217B187A18127851
:10311000013A1A707B181B780C2B0DD97B181B7881
:103120000D2B07D97B181B780E2B01D9112332E008
:10313000122330E013232EE00E22BB181B78082B3D
:1031400014D9BB181B780A2B07D9BB181B780B2B7B
:1031500001D915231FE017231DE00E23FB181B7850
:10316000092B01D9192316E01C2314E00E22BB18E9
:103170001B78062B07D9BB181B78072B01D92023F6
:1031800009E0242307E00E23FB181B78052B01D947
:103190002A2300E033230C217A1813801623FB180E
:1031A0001B787A18128853431A120F23FB181A70CF
:1031B00058E01723FB181B780C2B07D90F23FB189B
:1031C0001622BA18127892081A704BE01723FB18CF
:1031D0001B78082B17D91622BB181B780A2B0DD881
:1031E000BB181B78062B07D8BB181B78032B01D9FB
:1031F000012304E0002302E0022300E003230F2266
:10320000BA1813702EE01723FB181B78042B11D962
:103210001622BB181B78052B07D8BB181B78022B6E
:1032200001D9012302E0002300E002230F22BA1893
:10323000137017E01723FB181B78022B0BD91623EA
:10324000FB181B78022B01D9012200E000220F237A
:10325000FB181A7006E00F23FB181622BA18127812
:1032600052081A700F23FB181C7823001800BD4663
:1032700006B0B0BD80B584B000AF78600F23FB18F6
:1032800000221A700AE00F203B181B787A68002190
:10329000D1543B183A18127801321A700F23FB18D8
:1032A0001B78092BEFD97B6800229A727B68002279
:1032B0001A737B680B225A737B680022DA72C0464D
:1032C000BD4604B080BD80B58AB000AF786008000C
:1032D0001100FB1C021C1A70BB1C0A1C1A70FB1C80
:1032E0001B782C2B00D8E1E023217B18FA1C1278E4
:1032F0002D3A1A702223FB1806221A707B181B78AD
:10330000062B00D9D4E07B181B78062B04D17B68F0
:10331000180000F06DFFCCE02123FB18FF221A708B
:103320001023FB1801221A700F23FB18FF221A70BA
:103330000E23FB1800221A707B681A7B20203B1892
:103340000B218A1A1A702723FB183A1812781A7060
:103350002623FB1800221A7046E02723FB181B784F
:103360007A68D318BB6123217B181B78052B12D8F0
:103370001023FB181B781A007B181B781A411300C6
:10338000012213405A1E9341DAB2BB1C1978BB6963
:10339000180000F0DCFEBB691A780E23FB18110040
:1033A000180000F0FBFEBB691A780F23FB18110010
:1033B000180000F008FF2722BB181B780A2B04D83E
:1033C000BB181B780133DAB200E000222723FB1878
:1033D0001A701023FB181800FDF7E0F92622BB181D
:1033E000BA18127801321A702623FB181B780B2B9F
:1033F000B3D90E23FB181B781A000F23FB181B7878
:10340000D31AFF2B1CDC2523FB1800221A7012E0B4
:1034100025203B181B787A68D15C0F23FB181A789B
:103420003B181B788A1AD1B27A68D1543B183A18E3
:10343000127801321A702523FB181B780B2BE7D961
:103440000E23FB181B78F82B33D92423FB180022FA
:103450001A7025E02423FB181B787A68D318FB61C7
:10346000FB697B611323FB1800221A707B691B78B0
:10347000062B03D87B6900221A7005E07B691B7854
:10348000063BDAB27B691A70C046FB69002118005E
:1034900000F084FE2422BB18BA18127801321A7088
:1034A0002423FB181B780B2BD4D902E0C04600E084
:1034B000C046BD460AB080BD80B58AB000AF786016
:1034C00008001100FB1C021C1A70BB1C0A1C1A709D
:1034D000FB1C1B78292B00D8E1E023217B18FA1C68
:1034E00012782A3A1A702223FB1803221A707B18CA
:1034F0001B78032B00D9D4E07B181B78032B04D155
:103500007B68180000F0BDFECCE02123FB18FF22F1
:103510001A701023FB1801221A700F23FB18FF22C8
:103520001A700E23FB1800221A707B68DA792020AB
:103530003B1806218A1A1A702723FB183A181278AA
:103540001A702623FB1800221A7046E02723FB1866
:103550001B787A68D318BB6123217B181B78022B58
:1035600012D81023FB181B781A007B181B781A41FD
:103570001300012213405A1E9341DAB2BB1C197882
:10358000BB69180000F0E3FDBB691A780E23FB1835
:103590001100180000F002FEBB691A780F23FB1817
:1035A0001100180000F00FFE2722BB181B78052B16
:1035B00004D8BB181B780133DAB200E000222723BD
:1035C000FB181A701023FB181800FDF7E7F82622E5
:1035D000BB18BA18127801321A702623FB181B7810
:1035E000062BB3D90E23FB181B781A000F23FB18E8
:1035F0001B78D31AFF2B1CDC2523FB1800221A7022
:1036000012E025203B181B787A68D15C0F23FB1849
:103610001A783B181B788A1AD1B27A68D1543B18B1
:103620003A18127801321A702523FB181B78062BE2
:10363000E7D90E23FB181B78FB2B33D92423FB1867
:1036400000221A7025E02423FB181B787A68D3180F
:10365000FB61FB697B611323FB1800221A707B69F5
:103660001B78032B03D87B6900221A7005E07B6965
:103670001B78033BDAB27B691A70C046FB690021F4
:10368000180000F08BFD2422BB18BA181278013202
:103690001A702423FB181B78062BD4D902E0C046ED
:1036A00000E0C046BD460AB080BD80B58AB000AF1C
:1036B000786008001100FB1C021C1A70BB1C0A1C5D
:1036C0001A70FB1C1B78232B00D8E1E023217B1808
:1036D000FA1C1278243A1A702223FB1806221A7058
:1036E0007B181B78062B00D9D4E07B181B78062B9F
:1036F00004D17B68180000F00DFECCE02123FB18FC
:10370000FF221A701023FB1801221A700F23FB18D6
:10371000FF221A700E23FB1800221A707B68DA7FD2
:1037200020203B181E218A1A1A702723FB183A18EA
:1037300012781A702623FB1800221A7046E02723FD
:10374000FB181B787A68D318BB6123217B181B7880
:10375000052B12D81023FB181B781A007B181B7836
:103760001A411300012213405A1E9341DAB2BB1CC6
:103770001978BB69180000F0EAFCBB691A780E23BF
:10378000FB181100180000F009FDBB691A780F231F
:10379000FB181100180000F016FD2722BB181B783B
:1037A0001D2B04D8BB181B780133DAB200E00022CD
:1037B0002723FB181A701023FB181800FCF7EEFFE4
:1037C0002622BB18BA18127801321A702623FB1869
:1037D0001B781E2BB3D90E23FB181B781A000F235E
:1037E000FB181B78D31AFF2B1CDC2523FB180022A7
:1037F0001A7012E025203B181B787A68D15C0F23E1
:10380000FB181A783B181B788A1AD1B27A68D154FF
:103810003B183A18127801321A702523FB181B78CE
:103820001E2BE7D90E23FB181B78F82B33D9242342
:10383000FB1800221A7025E02423FB181B787A68F5
:10384000D318FB61FB697B611323FB1800221A70FC
:103850007B691B78062B03D87B6900221A7005E070
:103860007B691B78063BDAB27B691A70C046FB693C
:103870000021180000F092FC2422BB18BA1812781C
:1038800001321A702423FB181B781E2BD4D902E0B6
:10389000C04600E0C046BD460AB080BD80B58AB0D3
:1038A00000AF786008001100FB1C021C1A70BB1CE2
:1038B0000A1C1A70FB1C1B781C2B00D8F7E0232174
:1038C0007B18FA1C12781D3A1A702223FB18072263
:1038D0001A707B181B78072B00D9EAE07B181B783D
:1038E000072B04D17B68180000F066FDE2E021237D
:1038F000FB18FF221A701023FB1800221A700F23E6
:10390000FB18FF221A700E23FB1800221A707B6826
:103910001A7E20203B1817218A1A1A702723FB18B9
:103920003A1812781A702623FB1800221A705CE0ED
:103930002723FB181B787A68D318BB6123217B18D7
:103940001B78052B13D81023FB181B781A007B1843
:103950001B781A411300012213405A1E9341DAB218
:10396000BB1C1978BB69180000F0F1FB14E023239D
:10397000FB181B78062B0FD11023FB181B7818009F
:10398000FCF7B3FF03005A1E9341DAB2BB1C19784F
:10399000BB69180000F0DBFBBB691A780E23FB182B
:1039A0001100180000F0FAFBBB691A780F23FB180E
:1039B0001100180000F007FC2722BB181B78162BFB
:1039C00004D8BB181B780133DAB200E000222723A9
:1039D000FB181A701023FB181800FCF7DFFE2622D4
:1039E000BB18BA18127801321A702623FB181B78FC
:1039F000172B9DD90E23FB181B781A000F23FB18D9
:103A00001B78D31AFF2B1CDC2523FB1800221A700D
:103A100012E025203B181B787A68D15C0F23FB1835
:103A20001A783B181B788A1AD1B27A68D1543B189D
:103A30003A18127801321A702523FB181B78172BBD
:103A4000E7D90E23FB181B78F72B33D92423FB1857
:103A500000221A7025E02423FB181B787A68D318FB
:103A6000FB61FB697B611323FB1800221A707B69E1
:103A70001B78072B03D87B6900221A7005E07B694D
:103A80001B78073BDAB27B691A70C046FB690021DC
:103A9000180000F083FB2422BB18BA1812780132F8
:103AA0001A702423FB181B78172BD4D902E0C046C8
:103AB00000E0C046BD460AB080BD80B58AB000AF08
:103AC000786008001100FB1C021C1A70BB1C0A1C49
:103AD0001A70FB1C1B78142B00D8F8E023217B18EC
:103AE000FA1C1278153A1A702223FB1808221A7051
:103AF0007B181B78082B00D9EBE07B181B78082B70
:103B000004D17B68180000F015F9E3E02123FB18CD
:103B1000FF221A701023FB1800221A700F23FB18C3
:103B2000FF221A700E23FB1800221A707B683C22B9
:103B30009A5C20203B183B218A1A1A702723FB1815
:103B40003A1812781A702623FB1800221A705CE0CB
:103B50002723FB181B787A68D318BB6123217B18B5
:103B60001B78062B13D81023FB181B781A007B1820
:103B70001B781A411300012213405A1E9341DAB2F6
:103B8000BB1C1978BB69180000F0E1FA14E023238C
:103B9000FB181B78072B0FD11023FB181B7818007C
:103BA000FCF7A3FE03005A1E9341DAB2BB1C19783E
:103BB000BB69180000F0CBFABB691A780E23FB181A
:103BC0001100180000F0EAFABB691A780F23FB18FD
:103BD0001100180000F0F7FA2722BB181B783A2BC7
:103BE00004D8BB181B780133DAB200E00022272387
:103BF000FB181A701023FB181800FCF7CFFD2622C3
:103C0000BB18BA18127801321A702623FB181B78D9
:103C10003B2B9DD90E23FB181B781A000F23FB1892
:103C20001B78D31AFF2B1CDC2523FB1800221A70EB
:103C300012E025203B181B787A68D15C0F23FB1813
:103C40001A783B181B788A1AD1B27A68D1543B187B
:103C50003A18127801321A702523FB181B783B2B77
:103C6000E7D90E23FB181B78F62B33D92423FB1836
:103C700000221A7025E02423FB181B787A68D318D9
:103C8000FB61FB697B611323FB1800221A707B69BF
:103C90001B78082B03D87B6900221A7005E07B692A
:103CA0001B78083BDAB27B691A70C046FB690021B9
:103CB000180000F073FA2422BB18BA1812780132E7
:103CC0001A702423FB181B783B2BD4D902E0C04682
:103CD00000E0C046BD460AB080BD80B584B000AFEC
:103CE00078600F23FB1800221A700AE00F203B189F
:103CF0001B787A680021D1543B183A1812780132A7
:103D00001A700F23FB181B783B2BEFD97B683C22E2
:103D1000002199547B683E22002199547B683F2200
:103D20003D2199547B683D2200219954C046BD46EF
:103D300004B080BD90B585B000AF78607B683D224F
:103D4000002199547B683E22002199547B683F22D0
:103D50003D2199540F23FB1800221A7032E00F24E2
:103D60003B191A780E203B1879688A5C1A707B68B8
:103D70003E229B5C3A1812789A4210D37B683E220E
:103D8000995C7B683D2299547B683A183E211278F1
:103D90005A547B683A193F2112785A540CE07B68D8
:103DA0003D229B5C0E217A1812789A4204D97B68D6
:103DB0007A183D2112785A540F22BB18BA1812787B
:103DC00001321A700F23FB181B783B2BC7D9C04652
:103DD000C046BD4605B090BD80B582B000AF7860EA
:103DE0007A68FC23DB001E21D1527B68104A002137
:103DF00099507A68FD23DB000021D1507B680D4A81
:103E0000002199527A68FE23DB000021D1507B68A3
:103E1000094A002199527B68084A002199547B681D
:103E2000074A002199547B681800BD4602B080BD46
:103E3000E4070000EC070000F4070000F6070000AC
:103E4000F707000080B500AF074B180000F0FEFA3E
:103E500000F024FBFEF76EFE044B180000F054FB4C
:103E6000C046BD4680BDC0468C000020A009002091
:103E700080B582B000AF7860034B7A681A60C046A4
:103E8000BD4602B080BDC0469C09002080B582B00E
:103E900000AF78607A68044B1100180000F04DFC08
:103EA000C046BD4602B080BDA0090020F0B585B077
:103EB00000AF5D4B180000F063FC03001A000E24F5
:103EC0003B191A70594B180000F0B4FC03001A009B
:103ED0003B191100180000F076F9554B180000F05E
:103EE000A9FC03001A003B191100180000F06BF93F
:103EF000504B180000F0A5FD03001A003B191100FB
:103F0000180000F060F94C4B180000F09EFE030012
:103F10001A000D257B191A70484B180000F09CFF01
:103F200003001A007B191100180000F04CF9444BF3
:103F30001800FCF785FE03001A007B191100180019
:103F400000F041F90F26BC193E4B180001F088F82B
:103F5000030023707B191B78002B55D0BB191B78ED
:103F6000002B51D0314B1800FDF7DCFA03001A008A
:103F70003B1D9A713C1D2E4B180000F0E1FA031C0A
:103F800063713C1D2B4B180000F00EFB031C2371CA
:103F90003C1D2C4B180000F037FB031CE3703C1D4C
:103FA000254B180000F062FB031CA3703C1D234B43
:103FB000180000F090FB031C63703C1D204B1800A0
:103FC000FCF763FE031C23703B1D1800FDF7FDFB8F
:103FD000031C1A1C3B001A703B1DDA783B001B784F
:103FE0009A4206D17B191B780133DAB27B191A7019
:103FF0000AE00D217B181B780F22BA1812789A421A
:1040000002D37B1800221A700D23FB181A780E2495
:104010003B191100180000F0D6F83B191B78180066
:10402000BD4605B0F0BDC0468C0000208C080020C5
:10403000D4080020140900203C0900206009002059
:10404000700900203009002080B500AF034B180034
:1040500001F00AF903001800BD4680BDA009002048
:1040600080B500AF054B180001F008F9044B1800AB
:1040700001F012F9C046BD4680BDC0468C0000204C
:10408000A009002080B582B000AF0200FB1D1A70AD
:10409000FB1D1A78074B1100180001F00BF9064BB5
:1040A000180001F0FDF9FEF739FDC046BD4602B02B
:1040B00080BDC0468C000020A009002090B585B0CE
:1040C00000AF78607B680022DA727B6800221A7386
:1040D0007B680B225A730F23FB1800221A702CE006
:1040E0000F243B191A780E203B1879688A5C1A70E5
:1040F0007B681B7B01007A1812789A420CD37B688C
:104100001A7B7B68DA727B687A1812781A737B687C
:104110003A1912785A730AE07B68DB7A0E217A1812
:1041200012789A4203D97B687A181278DA720F22D1
:10413000BB18BA18127801321A700F23FB181B78BB
:10414000092BCDD9C046C046BD4605B090BD80B54F
:1041500082B000AF786008001100FB1C021C1A70CE
:10416000BB1C0A1C1A70BB1C1B78002B08D07B6878
:104170001A78FB1C1B78D318DAB27B681A7009E036
:104180007B681A78FB1C1B78D31ADBB20133DAB2D6
:104190007B681A70C046BD4602B080BD80B582B053
:1041A00000AF78600A00FB1C1A707B681B78FA1C51
:1041B00012789A4203D97B68FA1C12781A70C046AA
:1041C000BD4602B080BD80B582B000AF78600A0005
:1041D000FB1C1A707B681B78FA1C12789A4203D277
:1041E0007B68FA1C12781A70C046BD4602B080BDCA
:1041F00090B585B000AF78607B6800225A737B6809
:1042000000229A737B680D22DA730F23FB180022B9
:104210001A702CE00F243B191A780E203B1879688D
:104220008A5C1A707B689B7B01007A1812789A422C
:104230000CD37B689A7B7B685A737B687A181278F8
:104240009A737B683A191278DA730AE07B685B7BB1
:104250000E217A1812789A4203D97B687A1812785C
:104260005A730F22BB18BA18127801321A700F2332
:10427000FB181B780B2BCDD9C046C046BD4605B0F8
:1042800090BD90B585B000AF78607B6800221A724F
:104290007B6800225A727B6808229A720F23FB18EF
:1042A00000221A702CE00F243B191A780E203B18BC
:1042B00079688A5C1A707B685B7A01007A181278D8
:1042C0009A420CD37B685A7A7B681A727B687A1898
:1042D00012785A727B683A1912789A720AE07B68EF
:1042E0001B7A0E217A1812789A4203D97B687A18C1
:1042F00012781A720F22BB18BA18127801321A708B
:104300000F23FB181B78062BCDD9C046C046BD46EF
:1043100005B090BD90B585B000AF78607B68202275
:10432000002199547B682122002199547B68222224
:10433000202199540F23FB1800221A7032E00F2419
:104340003B191A780E203B1879688A5C1A707B68D2
:1043500021229B5C3A1812789A4210D37B68212262
:10436000995C7B68202299547B683A182121127845
:104370005A547B683A19222112785A540CE07B680F
:1043800020229B5C0E217A1812789A4204D97B680D
:104390007A18202112785A540F22BB18BA181278B2
:1043A00001321A700F23FB181B781E2BC7D9C04689
:1043B000C046BD4605B090BD90B585B000AF7860F1
:1043C0007B6800225A767B6800229A767B681922E5
:1043D000DA760F23FB1800221A702CE00F243B1909
:1043E0001A780E203B1879688A5C1A707B689B7E6D
:1043F00001007A1812789A420CD37B689A7E7B6807
:104400005A767B687A1812789A767B683A1912780D
:10441000DA760AE07B685B7E0E217A1812789A427F
:1044200003D97B687A1812785A760F22BB18BA180B
:10443000127801321A700F23FB181B78172BCDD975
:10444000C046C046BD4605B090BD000080B582B0F4
:1044500000AF78607B68180001F084F87B680D4A33
:10446000002199507A68FD23DB000021D1507B6840
:10447000094A002199527A68FE23DB000021D150BD
:104480007A68FC23DB001E21D152C046BD4602B033
:1044900080BDC046E4070000EC07000080B500AF17
:1044A000114B180001F096F8104B1800FCF7ADFC0A
:1044B0000F4B1800FFF711FC0E4B180001F097F896
:1044C0000D4B180001F0BCF80C4B180001F0E4F89B
:1044D0000B4B180001F009F90A4B1800FCF70CFC13
:1044E000C046BD4680BDC0468C0000208C08002020
:1044F000D4080020140900203C09002030090020C5
:10450000600900207009002080B582B000AF78609B
:104510007B6800221A707B6800225A817B68002227
:10452000DA607B68054A1A617B6801331800FDF781
:104530008BF8C046BD4602B080BDC046B80B000037
:1045400080B584B000AF78600F23FB1802221A7088
:104550000E23FB1800221A707B683E229B5C190018
:104560007B683D229B5CCB1A012B13DD7B683F22CD
:104570009B5C19007B683C229B5CCB1801333C217F
:104580001800FBF73BFF0B00DBB21800FCF750F9FB
:10459000031C05E00C217B18FF221A707B181B7886
:1045A000181CBD4604B080BD80B584B000AF7860F3
:1045B0000F23FB1802221A700E23FB1800221A7018
:1045C0007B689B7E1A007B685B7ED31A012B11DD12
:1045D0007B68DB7E1A007B681B7ED31801331821B1
:1045E0001800FBF70BFF0B00DBB21800FCF720F9FB
:1045F000031C05E00C217B18FF221A707B181B7826
:10460000181CBD4604B080BD80B584B000AF786092
:104610000F23FB1802221A700E23FB1801221A70B6
:104620007B685B7A1A007B681B7AD31A012B13DD37
:104630007B689B7A1A007B68DB79D31801330721EA
:104640001800FBF7DBFE0B00DBB20133DBB2180016
:10465000FCF7EEF8031C05E00C217B18FF221A7012
:104660007B181B78181CBD4604B080BD80B584B093
:1046700000AF78600F23FB1802221A700E23FB187C
:1046800001221A707B6821229B5C19007B68202222
:104690009B5CCB1A012B14DD7B6822229B5C1A00E9
:1046A0007B68DB7FD31801331F211800FBF7A6FEC0
:1046B0000B00DBB20133DBB21800FCF7B9F8031CC6
:1046C00005E00C217B18FF221A707B181B78181C40
:1046D000BD4604B080BD80B584B000AF78600F23C4
:1046E000FB1802221A700E23FB1801221A707B6835
:1046F0009B7B1A007B685B7BD31A012B13DD7B68E5
:10470000DB7B1A007B681B7BD31801330C2118005C
:10471000FBF774FE0B00DBB20133DBB21800FCF7D1
:1047200087F8031C05E00C217B18FF221A707B1808
:104730001B78181CBD4604B080BD80B584B000AFA6
:1047400078603960FBF776FF0300BB600123FB60F4
:104750000AE039687B68012208009B1808221900CA
:1047600006F088FA0023FB60FB68002BF1D10823D8
:10477000FB181800FBF76CFFC046BD4604B080BDB7
:10478000B0B588B000AF78600024FBF753FF03009A
:10479000FB6001237B6115E07A68FB23DB00D358C3
:1047A000FB617B68224A9B58FA699A4202D800242E
:1047B00000250BE07B681E4A9B58FA69D31ABB613F
:1047C00000237B617B69002BE6D101250C23FB18BC
:1047D0001800FBF73DFF012D25D1C0461323FB1820
:1047E00000221A7008E0FB695B08FB611322BB180A
:1047F000BA18127801321A70FB69002BF3D108E065
:104800001322BB18BA18127852081A70BB695B08D9
:10481000BB611323FB181B78002BF1D1BB69FF2B65
:1048200000D9FF23DCB223001800BD4608B0B0BD9C
:10483000D4070000B0B586B000AF78600024FBF765
:10484000F9FE0300BB6001233B611BE017203B180E
:104850007A683E21525C1A707B683D229B5C3A1854
:1048600012789A4202D8002400250FE07B683D228E
:104870009A5C1623FB181721791809788A1A1A707E
:1048800000233B613B69002BE0D101250823FB1885
:104890001800FBF7DDFE012D00D0CDE0C046172348
:1048A000FB181B781C2B00D86AE00E23FB18002293
:1048B0001A700BE01722BB18BA18127852081A7037
:1048C0000E22BB18BA18127801321A701723FB187F
:1048D0001B78002BEED10E217B187A181278013A42
:1048E0001A707B181B780C2B0DD97B181B780D2B9D
:1048F00007D97B181B780E2B01D9112332E0122324
:1049000030E013232EE00E22BB181B78082B14D99D
:10491000BB181B780A2B07D9BB181B780B2B01D9A6
:1049200015231FE017231DE00E23FB181B78092B0E
:1049300001D9192316E01C2314E00E22BB181B78A2
:10494000062B07D9BB181B78072B01D9202309E0B8
:10495000242307E00E23FB181B78052B01D92A23FB
:1049600000E033230C217A1813801623FB181B78E0
:104970007A18128853431A120F23FB181A7058E042
:104980001723FB181B780C2B07D90F23FB181622B3
:10499000BA18127892081A704BE01723FB181B788C
:1049A000082B17D91622BB181B780A2B0DD8BB1859
:1049B0001B78062B07D8BB181B78032B01D90123C2
:1049C00004E0002302E0022300E003230F22BA18D0
:1049D00013702EE01723FB181B78042B11D9162215
:1049E000BB181B78052B07D8BB181B78022B01D9E5
:1049F000012302E0002300E002230F22BA18137003
:104A000017E01723FB181B78022B0BD91623FB1872
:104A10001B78022B01D9012200E000220F23FB1892
:104A20001A7006E00F23FB181622BA1812785208E3
:104A30001A700F23FB181C7823001800BD4606B01F
:104A4000B0BDB0B586B000AF78600024FBF7F2FDD2
:104A50000300BB6001233B6118E017217B187A68D3
:104A6000927E1A707B685B7E7A1812789A4202D81E
:104A7000002400250EE07B685A7E1623FB181721C0
:104A8000791809788A1A1A7000233B613B69002B58
:104A9000E3D101250823FB181800FBF7D9FD012DF0
:104AA00000D0CDE0C0461723FB181B781C2B00D884
:104AB0006AE00E23FB1800221A700BE01722BB18C5
:104AC000BA18127852081A700E22BB18BA18127847
:104AD00001321A701723FB181B78002BEED10E2120
:104AE0007B187A181278013A1A707B181B780C2BF5
:104AF0000DD97B181B780D2B07D97B181B780E2B33
:104B000001D9112332E0122330E013232EE00E22CC
:104B1000BB181B78082B14D9BB181B780A2B07D994
:104B2000BB181B780B2B01D915231FE017231DE0A1
:104B30000E23FB181B78092B01D9192316E01C231F
:104B400014E00E22BB181B78062B07D9BB181B7864
:104B5000072B01D9202309E0242307E00E23FB18AB
:104B60001B78052B01D92A2300E033230C217A1866
:104B700013801623FB181B787A18128853431A12D5
:104B80000F23FB181A7058E01723FB181B780C2B07
:104B900007D90F23FB181622BA18127892081A7038
:104BA0004BE01723FB181B78082B17D91622BB18CC
:104BB0001B780A2B0DD8BB181B78062B07D8BB18FF
:104BC0001B78032B01D9012304E0002302E0022318
:104BD00000E003230F22BA1813702EE01723FB18EE
:104BE0001B78042B11D91622BB181B78052B07D86C
:104BF000BB181B78022B01D9012302E0002300E03F
:104C000002230F22BA18137017E01723FB181B7822
:104C1000022B0BD91623FB181B78022B01D901227A
:104C200000E000220F23FB181A7006E00F23FB1888
:104C30001622BA18127852081A700F23FB181C7823
:104C400023001800BD4606B0B0BDB0B586B000AFB9
:104C500078600024FBF7EEFC0300BB6001233B619E
:104C60001BE017203B187A682121525C1A707B6880
:104C700020229B5C3A1812789A4202D80024002520
:104C80000FE07B6820229A5C1623FB181721791805
:104C900009788A1A1A7000233B613B69002BE0D126
:104CA00001250823FB181800FBF7D2FC012D00D0CA
:104CB000CDE0C0461723FB181B781C2B00D86AE0F8
:104CC0000E23FB1800221A700BE01722BB18BA182B
:104CD000127852081A700E22BB18BA1812780132D4
:104CE0001A701723FB181B78002BEED10E217B18AE
:104CF0007A181278013A1A707B181B780C2B0DD990
:104D00007B181B780D2B07D97B181B780E2B01D92C
:104D1000112332E0122330E013232EE00E22BB18C1
:104D20001B78082B14D9BB181B780A2B07D9BB1882
:104D30001B780B2B01D915231FE017231DE00E2331
:104D4000FB181B78092B01D9192316E01C2314E04A
:104D50000E22BB181B78062B07D9BB181B78072B14
:104D600001D9202309E0242307E00E23FB181B7838
:104D7000052B01D92A2300E033230C217A18138054
:104D80001623FB181B787A18128853431A120F2324
:104D9000FB181A7058E01723FB181B780C2B07D947
:104DA0000F23FB181622BA18127892081A704BE0DB
:104DB0001723FB181B78082B17D91622BB181B7852
:104DC0000A2B0DD8BB181B78062B07D8BB181B78ED
:104DD000032B01D9012304E0002302E0022300E0B9
:104DE00003230F22BA1813702EE01723FB181B7829
:104DF000042B11D91622BB181B78052B07D8BB181A
:104E00001B78022B01D9012302E0002300E00223DA
:104E10000F22BA18137017E01723FB181B78022B08
:104E20000BD91623FB181B78022B01D9012200E0B5
:104E300000220F23FB181A7006E00F23FB1816221E
:104E4000BA18127852081A700F23FB181C78230026
:104E50001800BD4606B0B0BDB0B586B000AF7860F2
:104E60000024FBF7E7FB0300BB6001233B6118E074
:104E700017217B187A68927B1A707B685B7B7A18A3
:104E800012789A4202D8002400250EE07B685A7BF3
:104E90001623FB181721791809788A1A1A7000232B
:104EA0003B613B69002BE3D101250823FB18180067
:104EB000FBF7CEFB012D00D0CDE0C0461723FB1839
:104EC0001B781C2B00D86AE00E23FB1800221A70F6
:104ED0000BE01722BB18BA18127852081A700E226B
:104EE000BB18BA18127801321A701723FB181B78F6
:104EF000002BEED10E217B187A181278013A1A7025
:104F00007B181B780C2B0DD97B181B780D2B07D920
:104F10007B181B780E2B01D9112332E0122330E0CD
:104F200013232EE00E22BB181B78082B14D9BB18B4
:104F30001B780A2B07D9BB181B780B2B01D915231B
:104F40001FE017231DE00E23FB181B78092B01D946
:104F5000192316E01C2314E00E22BB181B78062B25
:104F600007D9BB181B78072B01D9202309E024237C
:104F700007E00E23FB181B78052B01D92A2300E03C
:104F800033230C217A1813801623FB181B787A1808
:104F9000128853431A120F23FB181A7058E0172374
:104FA000FB181B780C2B07D90F23FB181622BA18F5
:104FB000127892081A704BE01723FB181B78082B05
:104FC00017D91622BB181B780A2B0DD8BB181B78D3
:104FD000062B07D8BB181B78032B01D9012304E04B
:104FE000002302E0022300E003230F22BA1813700B
:104FF0002EE01723FB181B78042B11D91622BB189F
:105000001B78052B07D8BB181B78022B01D901236D
:1050100002E0002300E002230F22BA18137017E009
:105020001723FB181B78022B0BD91623FB181B78B0
:10503000022B01D9012200E000220F23FB181A7075
:1050400006E00F23FB181622BA18127852081A70BD
:105050000F23FB181C7823001800BD4606B0B0BD16
:10506000B0B586B000AF78600024FBF7E3FA030028
:10507000BB6001233B6118E017217B187A68527AE4
:105080001A707B681B7A7A1812789A4202D8002428
:1050900000250EE07B681A7A1623FB181721791871
:1050A00009788A1A1A7000233B613B69002BE3D10F
:1050B00001250823FB181800FBF7CAFA012D00D0C0
:1050C000CDE0C0461723FB181B781C2B00D86AE0E4
:1050D0000E23FB1800221A700BE01722BB18BA1817
:1050E000127852081A700E22BB18BA1812780132C0
:1050F0001A701723FB181B78002BEED10E217B189A
:105100007A181278013A1A707B181B780C2B0DD97B
:105110007B181B780D2B07D97B181B780E2B01D918
:10512000112332E0122330E013232EE00E22BB18AD
:105130001B78082B14D9BB181B780A2B07D9BB186E
:105140001B780B2B01D915231FE017231DE00E231D
:10515000FB181B78092B01D9192316E01C2314E036
:105160000E22BB181B78062B07D9BB181B78072B00
:1051700001D9202309E0242307E00E23FB181B7824
:10518000052B01D92A2300E033230C217A18138040
:105190001623FB181B787A18128853431A120F2310
:1051A000FB181A7058E01723FB181B780C2B07D933
:1051B0000F23FB181622BA18127892081A704BE0C7
:1051C0001723FB181B78082B17D91622BB181B783E
:1051D0000A2B0DD8BB181B78062B07D8BB181B78D9
:1051E000032B01D9012304E0002302E0022300E0A5
:1051F00003230F22BA1813702EE01723FB181B7815
:10520000042B11D91622BB181B78052B07D8BB1805
:105210001B78022B01D9012302E0002300E00223C6
:105220000F22BA18137017E01723FB181B78022BF4
:105230000BD91623FB181B78022B01D9012200E0A1
:1052400000220F23FB181A7006E00F23FB1816220A
:10525000BA18127852081A700F23FB181C78230012
:105260001800BD4606B0B0BD80B582B000AF786012
:105270007B681B781800BD4602B080BD80B582B047
:1052800000AF78607A68FC23DB0096214900D15298
:10529000C046BD4602B080BD80B582B000AF786028
:1052A0007B68034A1A61C046BD4602B080BDC04655
:1052B00030750000F0B587B000AF78600A00FB1CC5
:1052C0001A707B687B611323FB18FA1C12781A7022
:1052D0007B69180000F0F8FA10203B187969FA226F
:1052E000D2008A5A1A803B181B885B007A69D3184F
:1052F000FB60FB681A887969FC23DB00CB5A9A4271
:1053000005D97A69FC23DB00D25AFB681A80132383
:10531000FB181B78002B0ED0FB681A887969FC23D8
:10532000DB00CB5A9A4210D2FB681B8801339AB239
:10533000FB681A8009E0FB681B88002B05D0FB681E
:105340001B88013B9AB2FB681A8010257B191B88C9
:10535000C8229200944663449BB20A26BC191800E6
:1053600000F0D4FA030023807B191B88E12292000D
:10537000944663449BB20822BC18180000F0C6FA99
:10538000030023807B69424A9A587969FD23DB0038
:10539000CB589A420BDD7B693D4A99587A69FD23C7
:1053A000DB00D1507B69BA193A4912885A527B699D
:1053B000394A9B5A9133FF339BB2180000F0A6FA8A
:1053C00003001A001023FB181B889B1A5A425341F2
:1053D000DBB2002B06D07B692D4A99587A69FE23EF
:1053E000DB00D1501023FB181B88002B1BD17A69DE
:1053F000FD23DB00D35819007A69FB23DB00D15071
:105400007B69244A995A7B69234A99527A69FE2317
:10541000DB00D35819007B69204A99507A69FD2333
:10542000DB000021D1507B69194A9A580A23FB18E6
:1054300019887B694900CB5A5B00D21A7B691449F1
:105440005A507B69124A9B580822BA1811887A6907
:1054500049008A5A9A187B690D495A507B690C4A4F
:105460009B581022BA1811887A6949008A5A9A18EA
:105470007B6907495A50C046FB1C1A787B681100AB
:10548000180000F05BF9C046BD4607B0F0BDC0464D
:10549000E4070000EC070000DC070000D407000070
:1054A00080B582B000AF78607B685B8901339AB2C7
:1054B0007B685A817B681B78052B03D07B681B783F
:1054C000042B0CD17B685B89244A934207D97B6803
:1054D0000122DA607B6803221A70FEF7DFFF7B6827
:1054E0001B78032B03D07B681B78022B32D17B689F
:1054F0005A89FA239B009A422CD37B685B89184A0D
:10550000944663449AB27B685A817B681A7A082170
:105510008A431A727B6801331800FCF720FC7B6811
:105520000133180000F06CF97B685B7ADBB2012272
:105530005340DAB27B685A727B68DB685A1C7B681E
:10554000DA607B68DA687B681B699A4202D97B68FB
:1055500002221A70C046BD4602B080BD7D04000024
:1055600018FCFFFF80B584B000AF78600E23FB18F5
:1055700000221A800BE00E203B181A887B6852002C
:105580000021D1523B183A18128801321A800E239A
:10559000FB181A88FA239B009A42ECD37A68FA2304
:1055A000DB000021D1527A68FB23DB000021D150BF
:1055B0007B68054A054999527B68054A0021995044
:1055C000C046BD4604B080BDDC070000E903000012
:1055D000D407000080B582B000AF78607A68FC2301
:1055E000DB001E21D152C046BD4602B080BD80B551
:1055F00084B000AF78600F23FB1800221A700AE015
:105600000F203B181B787A680021D1543B183A18B8
:10561000127801321A700F23FB181B78172BEFD961
:105620007B6800221A767B6800229A767B681922B2
:10563000DA767B6800225A76C046BD4604B080BD4B
:1056400080B584B000AF78600F23FB1800221A7079
:105650000AE00F203B181B787A680021D1543B18D0
:105660003A18127801321A700F23FB181B781E2B80
:10567000EFD97B680022DA777B68212200219954D8
:105680007B682222202199547B6820220021995492
:10569000C046BD4604B080BD80B584B000AF786020
:1056A0000F23FB1800221A700AE00F203B181B780A
:1056B0007A680021D1543B183A18127801321A70D6
:1056C0000F23FB181B78062BEFD97B680022DA71B9
:1056D0007B6800225A727B6808229A727B680022DB
:1056E0001A72C046BD4604B080BD80B584B000AF1C
:1056F00078600F23FB1800221A700AE00F203B1875
:105700001B787A680021D1543B183A18127801327C
:105710001A700F23FB181B780B2BEFD97B68002224
:105720001A737B6800229A737B680D22DA737B6898
:1057300000225A73C046BD4604B080BD90B585B006
:1057400000AF78600A00FB1C1A700E243B197968C0
:10575000FA22D2008A5A1A807B68264A9B5C002B68
:105760002DD17B68244A9B5A3A191288D31A9BB2CE
:10577000224A944663449BB2180000F0C7F8030025
:10578000642B11D97B681C4A9A5A3B191B88D31A7F
:105790009BB2FA229200944663449BB2180000F038
:1057A000B5F80300012B01D8012300E00023002BF2
:1057B00005D000F0CFF87B680E4ACA2199547B6867
:1057C0000C4A9B5C002B10D07B680A4A9B5C013B17
:1057D000D9B27B68074A99547B68064A9A5CFB1CDD
:1057E00019787B68180000F09DF9C046BD4605B0E9
:1057F00090BDC046F7070000DC070000E903000089
:10580000B0B586B000AF78607B681800FDF700F98E
:105810002A4B1B68002B3BD07B689B790C257C199D
:105820001800FBF705F8031CA37129007B187A68A0
:1058300052795A717B187A6812791A717B187A68D2
:10584000D278DA707B187A6892789A707B187A68C6
:1058500052785A707B187A6812781A707B68DB79F4
:10586000DB07DB0FDAB27B18DA717B68DB791B07A9
:10587000DB0FDAB27B185A727B68DB795B07DB0FD0
:10588000DAB27B181A720D4B1B687A181000984711
:105890007B689B790F2B0DD1094B1B78002B09D00E
:1058A000074B1B78012B05D07A68064B11001800B6
:1058B000FBF7BFFAC046BD4606B0B0BD9C0900204C
:1058C000A00900208C08002080B582B000AF78606D
:1058D0007A68FA23DB00D35A0B4A93420AD87A68D3
:1058E000FA23DB00D35A013399B27A68FA23DB003A
:1058F000D15204E07A68FA23DB000021D152C0467D
:10590000BD4602B080BDC046E603000080B584B04D
:1059100000AF0200BB1D1A800E23FB18BA1D1288AF
:105920001A8007E00E22BB18BA18128808498C4664
:1059300062441A800E217B181A88FA239B009A422F
:10594000F0D27B181B881800BD4604B080BDC0464D
:1059500018FCFFFF90B585B000AF08243B19180074
:1059600000F030F93A003B191000190008231A0022
:1059700005F080F920003B189B79664A1278511E89
:105980008A41D2B29B18DAB23B189A7104003B19D3
:105990001800FCF7E4F93B191800FCF7F2F83B1982
:1059A0009A795D4B9A713B199B79002B00D0A7E047
:1059B000594A3B001000190008231A0005F05AF953
:1059C000554B00229A713B195B79012B7BD1534BCC
:1059D0001800FBF787F8514B1800FBF7A4F80300F9
:1059E00019003B19012211400800DA7901218A438C
:1059F000111C021C0A43DA71484B1800FBF7ACF883
:105A0000030019003B1901220A409000DA790421B1
:105A10008A43111C021C0A43DA71404B1800FBF741
:105A2000AAF8030019003B1901220A40D000DA79D4
:105A300008218A43111C021C0A43DA713B19180021
:105A4000FCF79FF83B19DB79DB07DB0FDAB2324B4F
:105A500001210A401000DA7901218A43111C021C3D
:105A60000A43DA713B19DB795B07DB0FDAB22A4BA9
:105A700001210A409000DA7904218A43111C021C9A
:105A80000A43DA713B19DB791B07DB0FDAB2224BD1
:105A900001210A40D000DA7908218A43111C021C36
:105AA0000A43DA711D4B1800FBF74CF8030019008C
:105AB000194B01220A409018DA7902218A43111CFD
:105AC000021C0A43DA710822BB181B79232B07D169
:105AD000BB185B79592B03D1104B1800FBF718F852
